:020000040800F2
:10000000F0070020AD010008992C00089B2C000887
:100010009F2C0008A32C0008A72C0008000000005B
:10002000000000000000000000000000AB2C0008F1
:10003000AD2C000800000000AF2C0008B12C000817
:10004000C7010008C7010008C7010008C701000870
:10005000C7010008C7010008C7010008C701000860
:10006000C7010008C7010008C7010008C701000850
:10007000C7010008C7010008C7010008C701000840
:10008000C7010008C7010008C7010008C701000830
:10009000C7010008C7010008C7010008C701000820
:1000A000C7010008C7010008C7010008C701000810
:1000B000C7010008C7010008B32C0008C7010008E9
:1000C000C7010008C7010008C7010008C7010008F0
:1000D000C70100084F200008C7010008C701000839
:1000E000C7010008C7010008C701000800F002F8B6
:1000F00000F04DF80AA090E8000C82448344AAF175
:100100000107DA4501D100F042F8AFF2090EBAE872
:100110000F0013F0010F18BFFB1A43F0010318473B
:100120008C670000AC670000103A24BF78C878C123
:10013000FAD8520724BF30C830C144BF04680C60ED
:10014000704700000023002400250026103A28BF35
:1001500078C1FBD8520728BF30C148BF0B60704739
:10016000662906F0F980002070471FB503F0CEF82D
:1001700004000020002104F03BFF401C60600020D0
:10018000002104F01FFFE0601FBD10B510BD03F09B
:1001900005FA1146FFF7E9FF02F030FD03F0A8FC75
:1001A00003B4FFF7F2FF03BC01F0F6FE09488047F5
:1001B00009480047FEE7FEE7FEE7FEE7FEE7FEE749
:1001C000FEE7FEE7FEE7FEE704480549054A064B61
:1001D00070470000CB1C0008ED000008F001002073
:1001E000F0070020F0030020F00300203149014314
:1001F000314A1160704770B5002100230F22C47886
:1002000004B32D4C246804F4E064C4F5E064210ACE
:10021000C1F10403CA40447804FA03F1847814401D
:1002200021430901254C0678A155047804F01F05E7
:100230000124AC4005786D11AD0005F1E025C5F84D
:10024000004109E0047804F01F050124AC401C4D76
:100250000678761145F8264070BD1A4A0A400243D6
:10026000154B1B1F1A60704739B1134A121D1268D3
:100270000243114B1B1D1A6006E00F4A121D126843
:1002800082430D4B1B1D1A607047042808D14FF0A4
:10029000E021096941F004014FF0E022116107E01B
:1002A0004FF0E021096921F004014FF0E0221161D3
:1002B000704700000000FA050CED00E000E400E0EB
:1002C00080E100E080FFFF1F10B50446CC48844267
:1002D00008D10121042000F02DFB0021042000F0B2
:1002E00029FB46E0C748844208D10121082000F0DC
:1002F00021FB0021082000F01DFB3AE0C2488442A7
:1003000008D10121102000F015FB0021102000F081
:1003100011FB2EE0BD48844208D10121202000F0CD
:1003200009FB0021202000F005FB22E0B8488442B0
:1003300008D10121402000F0FDFA0021402000F00A
:10034000F9FA16E0B348844208D10121802000F078
:10035000F1FA0021802000F0EDFA0AE0AE48844274
:1003600007D10121801500F0E5FA0021A01500F069
:10037000E1FA10BD10B50121084600F0DBFA0021BA
:10038000012000F0D7FA10BD2DE9F041024600250A
:100390000026002000230024002791F803C00CF061
:1003A0000F0591F803C00CF0100CBCF1000F03D046
:1003B00091F802C04CEA050591F800C0BCF1000FAD
:1003C00031D0146800202BE04FF0010C0CFA00F340
:1003D000B1F800C00CEA03069E4220D183004FF022
:1003E0000F0C0CFA03F7BC4305FA03FC4CEA0404B7
:1003F00091F803C0BCF1280F06D14FF0010C0CFAA4
:1004000000FCC2F814C00AE091F803C0BCF1480F28
:1004100005D14FF0010C0CFA00FCC2F810C0401CD2
:100420000828D1D31460B1F800C0BCF1FF0F34DD4F
:10043000546800202EE000F1080C4FF0010808FA83
:100440000CF3B1F800C00CEA03069E4221D18300F0
:100450004FF00F0C0CFA03F7BC4305FA03FC4CEA0F
:10046000040491F803C0BCF1280F05D100F1080C79
:1004700008FA0CF8C2F8148091F803C0BCF1480FD8
:1004800007D100F1080C4FF0010808FA0CF8C2F887
:100490001080401C0828CED35460BDE8F0814FF690
:1004A000FF710180022181700421C17070470246F2
:1004B000002093680B400BB1012000E00020704742
:1004C0000146886880B2704702460020D3680B401E
:1004D0000BB1012000E0002070470146C86880B2DF
:1004E000704701617047416170470AB1016100E0E6
:1004F00041617047C16070474FF480320A438261A6
:100500008161826182698269704702460020434BA3
:1005100018684FF68073184040EA021008433F4BBA
:10052000186070473E49C8617047F0B50A4600231D
:1005300000240021002500F00046B6F1004F02D152
:10054000364EF16901E0354E7168C0F3034583B260
:1005500000F44016B6F5401F08D121F070612F4E0F
:10056000766826F070662D4F7E6012E000F48016EB
:10057000B6F5801F06D1032606FA05F4A14341F023
:10058000706106E0460D360103FA06F6B14341F00C
:10059000706122B1460D360103FA06F6314300F0D0
:1005A0000046B6F1004F02D11C4EF16101E01B4E36
:1005B0007160F0BD30B500228B071C0F0F2303FACA
:1005C00004F2164B08338C1053F824309343134C29
:1005D00008348D1044F8253023468C1053F824300D
:1005E0008C07240F00FA04F423430C4C08348D10BC
:1005F00044F8253030BD0A49DC31086070470000FE
:1006000000080140000C01400010014000140140AE
:1006100000180140001C0140002001400000014082
:1006200000002042DF48006840F00100DD4908601A
:1006300008464068DC490840DA49486008460068D6
:10064000DA490840D74908600846006820F480204D
:1006500008600846406820F4FE0048604FF41F0020
:1006600088607047CF49096821F48031CD4A116014
:100670001146096821F480211160B0F5803F03D054
:10068000B0F5802F0ED106E0C649096841F48031EB
:10069000C44A116007E0C349096841F4A021C14A76
:1006A000116000E000BF00BF704710B50146002296
:1006B000002300204A11012A02D1BA4C236806E027
:1006C000022A02D1B74C236A01E0B64C636A01F0FA
:1006D0001F02012494401C400CB1012000E00020C6
:1006E00010BD38B5002000900024002500BF312047
:1006F000FFF7DBFF05460098401C00900098B0F51E
:10070000A06F01D0002DF2D03120FFF7CEFF08B14D
:10071000012400E00024204638BD01460020A14A03
:10072000106820F0F80040EAC10010607047A0494E
:1007300008607047024600209A4B586820F47C10ED
:1007400042EA01031843974B58607047984908667E
:10075000704701460020934A506820F00300084388
:10076000506070478F48406800F00C0070470146A9
:1007700000208C4A506820F0F00008435060704719
:1007800001460020874A506820F4E060084350602A
:10079000704701460020834A506820F4605040EAC8
:1007A000C1005060704729B17E4A527A02437D4BA6
:1007B0005A7204E07B4A527A82437A4B5A727047EB
:1007C0007B49D8310860704701460020754A50685F
:1007D00020F440400843506070470021714A2032A5
:1007E0001170704A82F82010012802D004280AD122
:1007F00004E001216B4A2032117005E00521694AAD
:100800002032117000E000BF00BF704769490860E6
:1008100070476449096A0143624A11627047654939
:1008200044390860704730B50021002200240023BD
:100830005C4D6D6805F00C0121B1042905D0082933
:1008400023D105E05C4D056022E05B4D05601FE0B3
:10085000544D6D6805F47012524D6D6805F4803486
:10086000022505EB92421CB9544D554305600BE03F
:100870004C4D6D6805F400351DB1504D5543056074
:1008800002E04D4D5543056002E04B4D056000BF51
:1008900000BF444D6D6805F0F0010909484D6B5CDF
:1008A0000568DD4045603F4D6D6805F4E061090A6B
:1008B000434D6B5C4568DD4085603A4D6D6805F4DD
:1008C0006051C90A3E4D6B5C4568DD40C560354DE1
:1008D0006D6805F44041890B3A4D6B5CC568B5FB0A
:1008E000F3F5056130BD29B12E4A526902432D4B03
:1008F0005A6104E02B4A526982432A4B5A6170477D
:1009000029B1284A92690243264B9A6104E0254A9C
:1009100092698243234B9A61704729B1214AD26977
:100920000243204BDA6104E01E4AD26982431D4B28
:10093000DA61704729B11B4AD2680243194BDA6069
:1009400004E0184AD2688243164BDA60704729B136
:10095000144A12690243134B1A6104E0114A1269E6
:100960008243104B1A617047124940390860704742
:100970000F49C86470470B49C87170470948406AFD
:1009800040F0807007494862704701460020054AE0
:1009900092680A400AB1012000E000207047014936
:1009A00088727047001002400000FFF8FFFFF6FE5B
:1009B000000042428004424200127A0000093D00D9
:1009C000000000201000002010B50446FE488442BC
:1009D00008D10121C014FFF7ADFF0021E014FFF79B
:1009E000A9FFC4E0B4F1804F08D101210846FFF708
:1009F000AEFF00210120FFF7AAFFB8E0F3488442D0
:100A000008D101210220FFF7A2FF00210220FFF7F9
:100A10009EFFACE0EE48844208D101210420FFF79C
:100A200096FF00210420FFF792FFA0E0E9488442EE
:100A300008D101210820FFF78AFF00210820FFF7D5
:100A400086FF94E0E448844208D101211020FFF79A
:100A50007EFF00211020FFF77AFF88E0DF48844204
:100A600008D101212020FFF772FF00212020FFF78D
:100A70006EFF7CE0DA48844208D101214014FFF780
:100A800059FF00216014FFF755FF70E0D5488442FC
:100A900009D10121C804FFF74DFF00214FF40020C8
:100AA000FFF748FF63E0D048844209D101210805DF
:100AB000FFF740FF00214FF48010FFF73BFF56E0A7
:100AC000CA48844209D101214805FFF733FF0021BC
:100AD0004FF40010FFF72EFF49E0C548844208D1CB
:100AE00001214020FFF733FF00214020FFF72FFFB7
:100AF0003DE0C048844208D101218020FFF727FF54
:100B000000218020FFF723FF31E0BB48844208D159
:100B100001218015FFF71BFF0021A015FFF717FF2C
:100B200025E0B648844209D101210804FFF702FFFD
:100B300000214FF48030FFF7FDFE18E0B0488442FA
:100B400009D101214804FFF7F5FE00214FF40030E0
:100B5000FFF7F0FE0BE0AB48844208D10121880486
:100B6000FFF7E8FE00214FF48020FFF7E3FE10BD01
:100B700000220288944B98420ED0994B98420BD099
:100B8000B0F1804F08D0914B984205D0904B9842DD
:100B900002D0904B984204D14FF68F731A404B8885
:100BA0001A438D4B984207D08C4B984204D04FF695
:100BB000FF431A40CB881A4302808B8883850B88B9
:100BC0000385814B98420BD0854B984208D08B4BC4
:100BD000984205D08A4B984202D08A4B984201D164
:100BE0000B7A038601238382704770B500240022AC
:100BF0000023058C4FF6FE7635400584028C8388F1
:100C0000048B4FF68F752C40B51E2C400D882C435D
:100C1000751E2A400D892A434D882A436A4DA842F1
:100C20000BD06F4DA84208D0744DA84205D0744D2A
:100C3000A84202D0734DA84213D14FF6F7752A404F
:100C40004D892A434FF6FB752A408D882A434FF67B
:100C5000FF652B404FF6FF552B408D892B43CD89E7
:100C60002B4383800483CD888586028470BD70B554
:100C7000002400220023058C4FF6EF7635400584D2
:100C8000028C8388048B48F6FF752C404FF6FF4595
:100C90002C400D884FF6FF7606EA05252C434FF6CB
:100CA000DF752A400D8906EA05152A434D8806EAB4
:100CB00005152A43444DA84202D0494DA8421DD1F2
:100CC0004FF67F752A404D894FF6FF7606EA0515E7
:100CD0002A434FF6BF752A408D8806EA05152A4338
:100CE0004FF6FF352B404FF2FF752B408D8906EAFA
:100CF00085052B43CD8906EA85052B438380048334
:100D0000CD880587028470BD70B5002400220023C1
:100D1000058C4FF6FF6635400584028C8388848BF2
:100D20004FF68F752C404FF6FC752C400D882C43E8
:100D30004FF6FF552A400D894FF6FF7606EA052546
:100D40002A434D8806EA05252A431F4DA84202D0B2
:100D5000234DA8421DD14FF2FF752A404D894FF611
:100D6000FF7606EA05252A434FF6FF352A408D888F
:100D700006EA05252A434EF6FF752B404DF6FF7512
:100D80002B408D8906EA05152B43CD8906EA05150A
:100D90002B4383808483CD888587028470BD70B5A2
:100DA000002200230024058C4EF6FF763540058492
:100DB000038C8488828B48F6FF752A404FF6FF45E6
:100DC0002A400D8820E00000002C01400004004073
:100DD00000080040000C00400010004000140040DB
:100DE00000340140004C01400050014000540140DB
:100DF00000180040001C004000200040004001405E
:100E000000440140004801404FF6FF7606EA052500
:100E10002A434DF6FF752B400D8906EA05352B4315
:100E20004D8806EA05352B43FA4DA84202D0FA4D0B
:100E3000A84208D14BF6FF752C408D894FF6FF76FE
:100E400006EA85152C4384808283CD88A0F8405023
:100E5000038470BD828B4FF2FF331A408283828BF2
:100E60004FF6FF7303EA01231A4382837047F0B5FC
:100E70000C461546002200210026078C4EF6FF7C0A
:100E800007EA0C070784828B018C4FF6FF7707EA8D
:100E9000043640F6FF473A404FF6FF7707EA05274A
:100EA0003A434FF6FF7707EA03373A43D94FB84240
:100EB0000ED0D94FB8420BD0B0F1804F08D0D74FE9
:100EC000B84205D0D64FB84202D0D64FB84206D16C
:100ED0004DF6FF77394046F48057394305E047F631
:100EE000FF57394044F48057394382830184F0BD71
:100EF000828B4FF6F3731A408283828B0A4382837C
:100F00007047F0B50C461546002200210026078CDC
:100F10004FF6FF6C07EA0C070784828B018C4FF6B3
:100F2000FF7707EA04264FF60C773A404FF6FF7733
:100F300007EA03172F433A43B64FB8420ED0B64FD5
:100F4000B8420BD0B0F1804F08D0B44FB84205D0B2
:100F5000B34FB84202D0B34FB84206D14FF6FF5755
:100F6000394046F48077394305E04FF2FF57394066
:100F700044F48077394382830184F0BD028B4FF2C1
:100F8000FF331A400283028B4FF6FF7303EA0123FB
:100F90001A4302837047F0B50C4615460022002123
:100FA0000026078C4FF6EF7C07EA0C070784028BBC
:100FB000018C4FF6FF7707EA041640F6FF473A40E8
:100FC0004FF6FF7707EA03373A434FF6FF7707EA12
:100FD00005273A438F4FB8420ED08F4FB8420BD0FF
:100FE000B0F1804F08D08D4FB84205D08C4FB84239
:100FF00002D08C4FB84206D14FF6DF77394046F029
:101000001007394305E04FF65F77394044F0100789
:10101000394302830184F0BD028B4FF6F3731A400B
:101020000283028B0A4302837047F0B50C461546D3
:1010300000220021068C4FF6FE773E400684028B8C
:10104000018C4FF60C7632407E1C06EA03162E43C6
:101050003243704EB0420ED06F4EB0420BD0B0F162
:10106000804F08D06D4EB04205D06D4EB04202D0D8
:101070006C4EB04206D14FF6FD76314044F0010689
:10108000314305E04FF6F576314044F00106314337
:1010900002830184F0BD70B505460C465D4885426B
:1010A0000ED05D4885420BD0B5F1804F08D05B482B
:1010B000854205D05A48854202D05A48854200D11F
:1010C00000E000BF208850B92389A28861882846A3
:1010D000FFF7ABFFE1882846FFF79EFF25E0208859
:1010E00004280AD12389A28861882846FFF753FF84
:1010F000E1882846FFF742FF17E0208808280AD138
:101100002389A28861882846FFF7FBFEE1882846EC
:10111000FFF7EEFE09E02389A28861882846FFF7E1
:10112000A6FEE1882846FFF795FE70BD2DE9F04147
:1011300005460C4600260127608808B9022600E013
:101140000026A088012801D1022700E0012720887D
:10115000A0B92389A28861882846FFF766FFE18845
:101160002846FFF759FF23893A4631462846FFF7BC
:1011700012FFE1882846FFF701FF13E02389A288C8
:1011800061882846FFF707FFE1882846FFF7F6FE4B
:1011900023893A4631462846FFF747FFE18828462B
:1011A000FFF73AFFBDE8F0810A884B881A438B8825
:1011B0001A43CB881A430B891A434B891A438B89EC
:1011C0001A43A0F8442070474FF6FF718180002138
:1011D0000180C180418001727047002101804180FF
:1011E0008180C180018141818181C181704700215D
:1011F00001804180012181800021C18001817047EF
:101200000021018041808180C180018141818181F3
:1012100070470000002C01400034014000040040F1
:1012200000080040000C004021B1028842F0010299
:10123000028004E002884FF6FE731A400280704775
:1012400031B1B0F8442042F40042A0F8442005E057
:10125000B0F84420C2F30E02A0F8442070471AB13F
:1012600083890B43838102E083898B4383817047A9
:101270008182704741EA0203A0F8483070471AB1F2
:1012800083890B43838102E083898B438381704789
:1012900001894FF6F8721140018170470A4600211A
:1012A00001894FF68F73194011430181704730B5A2
:1012B00004460D4629462046FFF7F0FF208940F0FE
:1012C0000700208130BD2DE9F04104460D46164649
:1012D0001F46602D06D13B46012231462046FFF7CE
:1012E0005AFE05E03B46012231462046FFF79DFEAF
:1012F00029462046FFF7D2FF208940F007002081D1
:10130000BDE8F08130B50C4600210189C9B24FF625
:10131000FF7505EA0325154325432943018130BDA7
:101320002DE9F04105460E461746984600244346EF
:101330003A4631462846FFF7E5FF2C894FF6F8700C
:10134000044044F007044FF68F70044044F07004EA
:101350002C81BDE8F081F0B504460D4616461F46C7
:101360003B46324629462046FFF7CCFF208940F411
:1013700080402081F0BD0185828270470A460021AD
:1013800001884FF68F731940114301807047F0B503
:101390000C4615461E460021002200230189028BBF
:1013A000038C4FF6F877394021434FF6FC473A401B
:1013B00040F201173A434FF6DD773B404FF6FF7797
:1013C00007EA06172F433B43018102830384F0BDE4
:1013D0000A460021018B4FF68F7319401143018398
:1013E00070470A460021018B48F6FF7319404FF6FB
:1013F000FF7303EA02231943018370470A46002161
:10140000818B4FF68F7319401143818370470A46D1
:101410000021818B48F6FF7319404FF6FF7303EAF2
:10142000022319438183704721B1028842F0800270
:10143000028004E002884FF67F731A4002807047F2
:1014400021B1828842F00402828004E082884FF653
:10145000FB731A408280704721B1828842F00802F3
:10146000828004E082884FF6F7731A4082807047CA
:1014700021B1828842F00102828004E082884FF626
:10148000FE731A40828070470A460021018B4FF696
:10149000F77319401143018370470A460021018BFD
:1014A0004FF2FF7319404FF6FF7303EA022319430B
:1014B000018370470A460021818B4FF6F77319406C
:1014C0001143818370470A460021818B4FF2FF73DD
:1014D00019404FF6FF7303EA0223194381837047D3
:1014E0000A460021018B4FF6FB731940114301831B
:1014F00070470A460021018B4FF6FF3319404FF623
:10150000FF7303EA02231943018370470A4600214F
:10151000818B4FF6FB7319401143818370470A4654
:101520000021818B4FF6FF3319404FF6FF7303EA1A
:1015300002231943818370470A460021018B4FF62D
:101540007F7319401143018370470A460021018BC4
:10155000C1F30E014FF6FF7303EA0223194301831F
:1015600070470A460021818B4FF67F731940114363
:10157000818370470A460021818BC1F30E014FF62B
:10158000FF7303EA02231943818370470A4600214F
:10159000018C4FF6FD7319401143018470470A46D0
:1015A0000021018C4FF6F7731940114301847047F5
:1015B0000A460021018C4FF6DF7319404FF6FF7386
:1015C00003EA02131943018470470A460021018C83
:1015D0004FF67F7319404FF6FF7303EA0213194366
:1015E000018470470A460021018C4FF6FF531940D1
:1015F0004FF6FF7303EA02231943018470470A463A
:101600000021018C4FF2FF7319404FF6FF7303EA7C
:1016100002231943018470470A460021018C4DF6CC
:10162000FF7319404FF6FF7303EA02331943018435
:10163000704730B5002301248C40A3B2048C9C4336
:101640000484048C02FA01F5ADB22C43048430BD4D
:1016500030B5002304248C40A3B2048C9C43048442
:10166000048C02FA01F5ADB22C43048430BD70B590
:101670000346002000241846183001258D40ACB2E6
:101680001D8CA5431D8409B1082909D100EB610017
:10169000056825F0700505600568154305600EE0D6
:1016A0000D1FC5F34E052844056825F4E045056087
:1016B00005684FF6FF7606EA02263543056070BDE1
:1016C00021B1028842F00202028004E002884FF653
:1016D000FD731A400280704721B1028842F0040273
:1016E000028004E002884FF6FB731A4002807047C4
:1016F00021B1828842F08002828004E082884FF625
:101700007F731A408280704702884FF6F7731A4041
:10171000028002880A430280704782884FF68F73E6
:101720001A40828082880A438280704702894FF67D
:10173000F8731A40028102890A43028170470289C4
:101740004FF67F731A40028102890A430281704773
:101750008184704781857047818670470187704713
:1017600081877047A0F84010704702884FF6FF430A
:101770001A40028002880A43028070470146888E20
:1017800070470146088F70470146888F70470146B1
:10179000B1F8400070470146888C70470146088DBB
:1017A000704702460020138A0B400BB1012000E075
:1017B00000207047CA430282704730B502460020BD
:1017C00000230024158A05EA0103958905EA01042E
:1017D00013B10CB1012000E0002030BDCA430282E9
:1017E0007047000010B50446FB48844209D101212E
:1017F0008803FFF79FF800214FF48040FFF79AF825
:1018000032E0F648844209D101214804FFF79FF8ED
:1018100000214FF40030FFF79AF825E0F0488442A9
:1018200009D101218804FFF792F800214FF48020AC
:10183000FFF78DF818E0EB48844209D10121C80474
:10184000FFF785F800214FF40020FFF780F80BE048
:10185000E548844208D101210805FFF778F8002106
:101860004FF48010FFF773F810BD2DE9F04786B0F4
:1018700005460E460024A24600BFA1460027B089B7
:1018800000B100BF2F462C8A4CF6FF700440F08850
:1018900004432C82AC894EF6F3100440B0883189A1
:1018A0000843718908430443AC81AC8A4FF6FF407A
:1018B0000440B0890443AC8201A8FEF7B4FFC648D7
:1018C000874202D1DDF810A001E0DDF80CA0A88964
:1018D00000F4004040B10AEBCA0000EB0A10316886
:1018E0004900B0FBF1F807E00AEBCA0000EB0A1070
:1018F00031688900B0FBF1F86420B8FBF0F0040116
:101900002009642101FB1089A88900F4004040B13E
:10191000322000EBC900B0FBF1F000F007000443F7
:1019200008E0322000EB09106421B0FBF1F000F078
:101930000F0004432C8106B0BDE8F0874FF4165128
:10194000016000218180C18001810C214181002141
:101950008181704710B502460020108A4FF2FF03C4
:1019600018400B884C8823438C882343CC8823431E
:101970001843108210BD0021018041808180C18008
:10198000704721B1828942F40052828104E0828949
:101990004DF6FF731A4082817047F0B5034600246C
:1019A00000260025002040F66A17B94200D100BF8A
:1019B0001846C1F3421401F01F06012707FA06F585
:1019C000012C01D10C3004E0022C01D1103000E0D8
:1019D00014301AB107682F43076002E00768AF436D
:1019E0000760F0BD1AB1838A0B43838202E0838AC9
:1019F0008B4383827047028A4FF6F0731A4002824B
:101A0000028A0A430282704782894FF2FF731A40AA
:101A1000828182890A438281704721B1828942F0A2
:101A20000202828104E082894FF6FD731A408281AE
:101A30007047028A4FF6DF731A400282028A0A4315
:101A40000282704721B1028A42F48042028204E09D
:101A5000028A4BF6FF731A4002827047C1F30802F4
:101A60008280704701468888C0F3080070478189EA
:101A700041F0010181817047028BD2B20283028B57
:101A800042EA012202837047028B02F47F42028302
:101A9000028B0A430283704721B1828A42F02002FE
:101AA000828204E0828A4FF6DF731A408282704796
:101AB00021B1828A42F01002828204E0828A4FF6CB
:101AC000EF731A408282704721B1828A42F0080285
:101AD000828204E0828A4FF6F7731A40828270474E
:101AE00021B1828942F40042828103E08289C2F3FB
:101AF0000E028281704721B1828A42F400628282A2
:101B000004E0828A4FF2FF731A4082827047828A11
:101B10004FF6FB731A408282828A0A4382827047A0
:101B200021B1828A42F00202828204E0828A4FF668
:101B3000FD731A408282704702460020B1F5007F93
:101B400000D100BF13880B400BB1012000E0002042
:101B5000704701F40072B2F5007F00D100BFCA43A4
:101B60000280704770B50246002400230025002043
:101B700040F66A16B14200D100BFC1F3421501F030
:101B80001F03012606FA03F3012D02D19689334083
:101B900006E0022D02D1168A334001E0968A3340D6
:101BA0000C12012606FA04F41688344013B10CB165
:101BB000012000E0002070BD10B50022002340F697
:101BC0006A14A14200D100BF0A1201249440A3B2BA
:101BD000DC43048010BD0000003801400044004098
:101BE00000480040004C0040005000400CB5002070
:101BF000019000906C48006840F480306A490860A9
:101C000000BF6948006800F4003000900198401C53
:101C10000190009818B90198B0F5A06FF1D1624811
:101C2000006800F4003010B10120009001E00020B5
:101C300000900098012843D15C48006840F01000F3
:101C40005A4908600846006820F00300086008460A
:101C5000006840F0020008605348406852494860FC
:101C60000846406848600846406840F48060486024
:101C70000846406820F47C1048600846406840F4FC
:101C8000E81048600846006840F08070086000BFB7
:101C90004548006800F000700028F9D042484068CC
:101CA00020F00300404948600846406840F00200C8
:101CB000486000BF3C48406800F00C000828F9D19B
:101CC0000CBD10B5FFF792FF10BD10B53648006887
:101CD00040F0010034490860084640683449084033
:101CE0003149486008460068324908402E4908607A
:101CF0000846006820F4802008600846406820F408
:101D0000FE0048604FF41F008860FFF7DAFF4FF0D5
:101D100000602949086010BD10B500210020002294
:101D2000214B5B6803F00C0121B1042906D008297E
:101D300028D107E0214B224C236027E01F4B204C89
:101D4000236023E0184B5B6803F47010164B5B684C
:101D500003F48032022303EB904022B9194B434332
:101D6000174C23600DE0104B5B6803F4003323B184
:101D7000144B4343124C236003E0104B4343104C7D
:101D8000236003E00D4B0E4C236000BF00BF064BE9
:101D90005B68C3F303130C4CE15C094B1B68CB403D
:101DA000074C236010BD00000010024000200240DC
:101DB0000000FFF8FFFFF6FE08ED00E000127A00D9
:101DC0001400002000093D0018000020014601EB2E
:101DD000C1024FF0E0235A6100229A6101221A6188
:101DE00000BF4FF0E022106900F001021AB100F4C8
:101DF0008032002AF5D000224FF0E0231A619A6168
:101E00007047014601EBC1024FF47A735A434FF019
:101E1000E0235A6100229A6101221A6100BF4FF04B
:101E2000E022106900F001021AB100F48032002AA9
:101E3000F5D000224FF0E0231A619A617047044800
:101E40004FF0E0214861002088610120086170475F
:101E5000FEFFFF0000B589B001210420FEF750FD10
:101E600001210846FEF759FD0720ADF82000182093
:101E70008DF8230003208DF8220008A94448FEF7BE
:101E800083FA4FF08040FEF79FFD0020ADF81A0066
:101E90002020ADF816000020ADF8140040F29F504D
:101EA000ADF8180005A94FF08040FEF761FE6020F4
:101EB000ADF804000020ADF80C000120ADF80600DC
:101EC0000020ADF80A0001A94FF08040FEF78DFE1A
:101ED00001A94FF08040FEF7CAFE01A94FF08040F3
:101EE000FEF712FF0821C806FFF7CEFA0821C80640
:101EF000FFF7D3FA0821C806FFF7DCFA01218807AB
:101F0000FFF792FA01218807FFF78EF909B000BDAB
:101F10001FB501210220FEF7F3FC0020ADF80A00F6
:101F2000ADF8060040F2E730ADF808004720ADF804
:101F3000040001A91748FEF71BFE012211461548AF
:101F4000FFF78DF901211348FFF76EF91D208DF879
:101F5000000001208DF803006846FEF74CF91FBD14
:101F600008B501210420FEF7CBFC0820ADF80000E5
:101F700010208DF8030001208DF802006946044806
:101F8000FEF702FA08210248FEF7ADFA08BD00008C
:101F9000000801400004004000BF704700BF6D4AC8
:101FA000128802F04002002AF9D0C2B2694B1B1D10
:101FB0001A80704710B586B00446012144F204002F
:101FC000FEF79EFC4FF40070ADF8140018208DF859
:101FD000170003208DF8160005A95F48FEF7D4F915
:101FE0004FF48060ADF8140004208DF8170005A9A7
:101FF0005948FEF7C9F901940020ADF810000C20F3
:10200000ADF80E000020ADF80C00ADF80A00ADF8F8
:10201000080001A94F48FFF728FC25208DF8000093
:1020200001208DF8030003208DF801008DF80200D7
:102030006846FEF7E0F8012240F225514548FFF7D7
:10204000ACFC01214348FFF79CFC06B010BD10B565
:1020500040F225513F48FFF785FD00283AD03D4822
:10206000FFF700FDC4B23D48008800F40040F8B915
:102070003A48008800F4804090B10A2C03D0002038
:102080003649088026E03548008840F4004033494E
:10209000088000200988C1F30D01314A505419E02D
:1020A0000D2C06D12D48008840F480402B49088033
:1020B00010E02A480088C0F30D0029490C54274835
:1020C0000088401C2549088008460088FF2801DD5B
:1020D0000020088010BD70B52048008800F4004042
:1020E000002836D01E48007844281ED0452824D029
:1020F000482802D0542828D103E01AA000F0F0FDAF
:1021000023E01748401C02F097FE044602F086FFC9
:10211000184908600846006803F098FD0446224606
:102120000B4615A000F0DCFD0FE008210A48FEF781
:10213000DAF914A000F0D4FD07E008210648FEF704
:10214000D0F915A000F0CCFD00BF00BF002003496E
:10215000088070BD00380140000801402C000020BC
:102160009000002048656C6C6F20576F726C642182
:102170000D0A0000300000205258203D20252E344A
:10218000660D0A004D6F746F722064697361626C32
:1021900065210D0A000000004D6F746F7220656E9E
:1021A00061626C65210D0A002DE9F74F94B08246FB
:1021B0008B46FE48007830B1012807D0022803D0B2
:1021C00003287CD101E000BF00BF00BF00215846BA
:1021D00003F098FE38D05146504603F047FF594669
:1021E0000F90584603F042FF0E900F9903F05AFDEE
:1021F000109000F0D8FC1190ED480168119803F0A0
:10220000BFFD8146584603F021FDCDE90801504647
:1022100003F01CFDCDE90601DDE9082302F03EFDD7
:10222000CDE90C01169803F011FDCDE90A01DDE9B5
:102230000C2302F025FFCDE90E0102F0EFFE119014
:1022400000F081FC169016E0D9480168504603F072
:1022500097FD8146169803F0F9FCD64AD64BCDE996
:102260000C0102F00DFFCDE90E0102F0D7FE119036
:1022700000F069FC1690484603F0E8FCCF4AD04BCA
:10228000CDE9100103F0B6FB01D2DFF838934846E0
:1022900003F0DCFCC94ACC4BCDE9100103F0C8F9CE
:1022A00001D2DFF82893169803F0D0FCC84AC94B36
:1022B000CDE90C0102F0A0FF0022C74B00E074E161
:1022C000CDE90E0102F0DCFECDE9100103F058F972
:1022D0000746484603F0BAFCCDE90E01169803F014
:1022E000B5FCCDE90401384603F08EF9B84AB94B84
:1022F000CDE9000103F0D8F9CDE90201DDE90423BD
:1023000003F0BAFBCDE9060102F088FE089000F068
:10231000BBFA099003F09AFCB04AB14BCDE90A012F
:1023200003F0C2F9CDE90C01DDE90E2303F0BCF99D
:10233000CDE9100102F072FE8046484603F086FCAB
:10234000CDE90E01781E03F05FF9A14AA14BCDE95A
:10235000000103F0A9F9CDE90401169803F076FC19
:10236000CDE90201DDE9042303F086FBCDE9060196
:1023700002F054FE089000F087FA099003F066FC22
:10238000964A974BCDE90A0103F08EF9CDE90C018D
:10239000DDE90E2303F088F9CDE9100102F03EFEDD
:1023A000129041464FF07E5003F05EFF119012995B
:1023B00003F05AFF1390072F7ED2DFE807F0C60420
:1023C00024446486A6004FF08041139803F0D8FCA3
:1023D00011904046129903F065FC1090119903F09A
:1023E00061FC04464FF08041139803F0C9FC119042
:1023F000129903F057FC05464FF08041139803F003
:10240000BFFC0646A5E04FF08041139803F0B8FCEE
:102410004146119003F046FC04464FF0804113986A
:1024200003F0AEFC11904046129903F03BFC109073
:10243000119903F037FC05464FF08041139803F0E3
:102440009FFC064685E04FF08041139803F098FC0E
:1024500004464FF08041139803F092FC11904046DF
:10246000129903F01FFC1090119903F01BFC054614
:102470004FF08041139803F083FC1190129903F000
:1024800011FC064665E04FF08041139803F078FC9C
:1024900004464FF08041139803F072FC41461190BE
:1024A00003F000FC05464FF08041139803F068FCF0
:1024B00011904046129900E047E003F0F3FB1090C2
:1024C000119903F0EFFB064643E04FF0804113986B
:1024D00003F056FC1190129903F0E4FB04464FF010
:1024E0008041139803F04CFC05464FF0804113984F
:1024F00003F046FC11904046129903F0D3FB109074
:10250000119903F0CFFB064623E04FF0804113986A
:1025100003F036FC11904046129903F0C3FB109073
:10252000119903F0BFFB04464FF08041139803F06C
:1025300027FC05464FF08041139803F021FC4146EB
:10254000119003F0AFFB064603E0002400250026AF
:1025500000BF00BF2349204603F088FD109003F020
:1025600005FD80B2014611904FF08040FFF7F4F86E
:102570001C49284603F07AFD109003F0F7FC80B266
:10258000014611904FF08040FFF7E8F815493046BA
:1025900003F06CFD109003F0E9FC80B2014611904D
:1025A0004FF08040FFF7DCF800BF1DE06300002023
:1025B00080000020F4D64354FB21F93F105839B471
:1025C000C876E23F46B6133FC876E2BF46B613BFB1
:1025D00040AF2D3852C1F03F0000F03F6B6058E82B
:1025E0007AB6FB3F0000B44400BF17B0BDE8F08FDF
:1025F0002DE9FC5F06464FF0E020846994480068AE
:10260000844215D292490968081B03F0E7FC9149FE
:10261000009003F0B5FB019003F018FB82468E4A50
:102620008E4B03F041F8074602F0F8FC054617E030
:102630006FF07F41091B864A1268881803F0CEFCB0
:102640008449009003F09CFB019003F0FFFA0746D9
:10265000814A824B03F028F8824602F0DFFC0546EF
:102660007B4804600021284603F04CFC08D0284633
:1026700003F0ECFA07460022794B03F0BBF900D2D5
:10268000784D29467848006803F0F0FC019003F08B
:10269000DDFA0746884675480168304603F0E4FDD8
:1026A000019003F0D3FA21F0004182463A464346B6
:1026B00003F0A0F92FD26D480168304603F0D4FD35
:1026C0000021019003F09EFC02D24FF0FF300CE09D
:1026D00066480168304603F0C7FD0021019003F011
:1026E00091FD01D2012000E00020834603F05EFC52
:1026F00082465D480168504603F0B8FC8046294692
:1027000003F0B4FC074659480168384603F0CAFA9A
:102710005649086001E0554806605548D0F80090D9
:10272000544801685148006800F032FA07463A46BA
:1027300000214846FFF738FD4846BDE8FC9F2DE9DB
:10274000F14F82B04FF0E020846941480068844234
:1027500015D23F490968081B03F040FC3D49019030
:1027600003F00EFB834603F071FA81463A4A3B4B75
:1027700002F09AFF064602F051FC054617E06FF0A2
:102780007F41091B324A1268881803F027FC31493F
:10279000019003F0F5FA834603F058FA06462E4AF4
:1027A0002E4B02F081FF814602F038FC0546284896
:1027B00004600021284603F0A5FB08D0284603F05A
:1027C00045FA06460022264B03F014F900D2254DA7
:1027D0002946029803F04AFC074624480168384617
:1027E00003F060FA064600F0AEF920490860204880
:1027F000D0F800801F4801681C48006800F0C8F944
:102800000646324600214046FFF7CEFC4046BDE872
:10281000FE8F10B5044618480078032802D004281B
:1028200014D109E0154804600068FFF788FF1449D7
:1028300048600020086009E0124804600068FFF763
:10284000D7FE0F4948600020086000BF00BF10BDE0
:1028500088000020000010418DEDB5A0F7C6B03E05
:102860000000E03F6F12833A7C000020340000201B
:10287000740000204C000020620000204000002076
:1028800050000020380000202DE9FF5F83465846A5
:1028900003F0DCF90446CA4ACA4B02F0C9FE44D22E
:1028A000584603F0D3F9C84AC84BCDE9020102F0FB
:1028B000FBFE80460022134603F09CF812D85846CF
:1028C00003F0C4F98046C04AC04B02F0EDFE00227E
:1028D000BF4BCDE9000102F0D3FBCDE9020102F0CC
:1028E0001FFE11E0584603F0B1F9B74AB74BCDE9E6
:1028F000000102F0D9FE0022B54BCDE9020103F040
:10290000BBF8804602F00CFEB24951F820A05046B8
:1029100002F063FE0646B04AB04B02F0C5FE044624
:1029200002F07CFB04B0BDE8F09F584603F08EF93E
:102930000446AB4AAB4B02F07BFE44D2584603F050
:1029400085F9A14AA14BCDE9020102F0ADFE804616
:102950000022134603F04EF812D8584603F076F9D9
:10296000994A9A4BCDE9000102F09EFE0022984B55
:10297000CDE9020102F084FB804602F0D1FD11E0B6
:10298000584603F063F9904A904BCDE9000102F0FC
:102990008BFE00228E4BCDE9020103F06DF88046DC
:1029A00002F0BEFDC0F5C7708A4951F820A050461C
:1029B00002F013FE0646884A884B02F075FE044674
:1029C00002F02CFBAEE7584603F040F90446864A75
:1029D000864B02F02DFE44D2584603F037F97A4A6E
:1029E0007A4BCDE9020102F05FFE804600221346D9
:1029F00003F000F812D8584603F028F9724A734BD6
:102A0000CDE9000102F050FE80460022704B02F03A
:102A100037FBCDE9020102F083FD11E0584603F0D7
:102A200015F9694A694BCDE9000102F03DFE804687
:102A30000022674B03F020F8CDE9020102F070FD9F
:102A4000A0F5C770634951F820A0504602F0C5FDBB
:102A50000646614A664B02F027FE044602F0DEFAA3
:102A600060E7584603F0F2F88046574A574B02F0A9
:102A70001BFE00221346CDE9020102F0BBFF12D873
:102A8000584603F0E3F8504A504BCDE9000102F0FC
:102A90000BFE804600224E4B02F0F2FACDE9020115
:102AA00002F03EFD11E0584603F0D0F88046464A59
:102AB000464B02F0F9FD0022454BCDE9000102F042
:102AC000DBFFCDE9020102F02BFDC0F54770414963
:102AD00051F820A0504602F080FD06463E4A444B85
:102AE00002F0E2FD044602F099FA1BE72DE9F047F7
:102AF0000646304603F0AAF80746314A314B02F049
:102B0000BFFA044602F08AFA8146484603F09EF86E
:102B10000746334A374B02F06DFF08D2484603F0B0
:102B200095F807462E4A334B02F0A6FF02E04846CE
:102B300003F08CF8044602F071FA81464846FFF72C
:102B4000A3FEBDE8F0872DE9F0470646304603F0C6
:102B50007DF80746224A274B02F084F9044602F02A
:102B60005DFA81460021484603F04CFB03D84846F5
:102B700003F06CF807E0484603F068F80746184A87
:102B80001C4B02F07DFA044602F048FABDE8F087DB
:102B900070B504460D46284603F008FA064621465D
:102BA00003F064FA70BD70B5044626461248A0EBE7
:102BB00065052E463146204603F058FA70BD0000E8
:102BC000F4D64354FB21F93F9CA223B9FCAB5F40F0
:102BD0000000E03F586400082D431CEBE2361A3F2A
:102BE000EA2E4454FB210940320D337F7CD9124038
:102BF000E2361ABFFB211940865A375F4FF4E130A5
:102C0000FFF7D8F9FFF726F9FFF782F9FFF7A8F9E0
:102C10004FF47A70FFF7F5F84FF0824011490860E1
:102C20004FF07E5010490860104811490860032099
:102C30001049087006201049086008210F48FDF768
:102C400050FC00200E4908600EA000F049F8FFF784
:102C5000F6F805E00A480068FFF7DBFDFFF73BFAEE
:102C6000F8E7000080000020740000200000A04170
:102C70007C000020620000204C0000200008014081
:102C8000300000204D6F746F72206973207265618F
:102C900064792E200D0A0000704700BFFEE700BFD8
:102CA000FEE700BFFEE700BFFEE7704770477047D2
:102CB000704710B501210748FEF77FFD012804D1B8
:102CC00005480068401C0449086001210148FEF7DE
:102CD00085FD10BD000800408C00002070470000FA
:102CE0000FB4044910B503AA029800F0ABFA10BC67
:102CF0005DF814FB280000202DE9F0474FF0000A92
:102D000089460446C0F820A02046E168884700288C
:102D100076D0252806D0D4E901219047206A401CAE
:102D20002062F1E7E168204600258847C4F81CA02E
:102D300006460027C4F818A02A2E09D0304601F014
:102D400096FE38B304EB8708303EC8F8186019E0E7
:102D500059F8041B204604EB87029161E16888471B
:102D6000012F064618D1E069002820DA25F0200559
:102D70001DE0D8F8180000EB800006EB400030386A
:102D8000C8F818002046E1688847064601F06FFE43
:102D90000028EED1012F0AD02E2E08D12046E1685E
:102DA00088477F1C0646022F45F02005C4DBA0693A
:102DB000002803DA404245F00105A061E80701D090
:102DC00025F01005B6B1A6F14100192802D8203629
:102DD00045F400654A463146204625604D46FDF7DC
:102DE000BFF958B1012806D0ED1D25F0070000F10C
:102DF000080989E704E005F1040985E730468AE718
:102E0000206ABDE8F087704770477047704710B57B
:102E100000F080FA006810BD10B5044600F07AFAA0
:102E2000046010BD70472DE9FF4F0C461E464FF061
:102E3000FF378BB0D2E90001DDF860800A908A4646
:102E4000C1F30A5505B93D46002108464FF0000080
:102E5000BAF1000F00F4400005DA00EB80004FF4F7
:102E6000400101EA50004FEA9059B9F1010F00DD2D
:102E7000B9460A9850EA4A000ED044F61050A5F21E
:102E8000FF3545432F14B8F1000F1ED07542291E9F
:102E90001EDDC9F100021CE0B8F1010F4FF0000087
:102EA00001D0302103E0F24305E02154401CB04240
:102EB000FBDB30460022002121540B99C1F8088029
:102EC000C1E900200FB0BDE8F08FBD1B6D1CDEE72F
:102ED0004A4600DA694206A800F0E6FA06AB93E833
:102EE000070003AB83E8070050460A9901F095F804
:102EF0008DE80700A0F500501F3800900398002DC2
:102F00000ADD42F21F014A460844002303A9039048
:102F1000684601F041FB09E0A0F500504A461F3821
:102F2000002303A90390684601F060FB8DE80700C9
:102F30000004000C03D04FF0FF30410800E01046C1
:102F4000B8F1000F03D00022009215461EE0751E56
:102F500005D400F0E3F9303262556D1EF9D5B34661
:102F60000122084302D000227F1C04E02078302890
:102F700001D100227F1E002A099784D01DE0112D67
:102F800007DA00F0CBF9303262556D1C50EA0102CD
:102F9000F5D1084302D00098C8B10EE00021681EA8
:102FA00005E0235C625C63542254401E491C81424C
:102FB000F7DBAB46A81B401E0990002004F80B006D
:102FC0000B98099AC0F80880C0E9002B7AE711260F
:102FD0004FF0000857E72DE9F04F88460446D21D10
:102FE00022F0070191B0D1E90001CDE90A0101F019
:102FF00049FC02460B98C00F01D02D2007E0206845
:10300000810701D52B2002E0202101EAC000032A1C
:10301000099001D0072A05DB03464146204600F00F
:10302000E3F90BE12078800601D5E06900E0062095
:10303000B8F1650F814606D0B8F1660F18D0B8F127
:10304000670F70D131E00020B9F1110F009001DB62
:10305000112301E009F101030AAA01A90CA8FFF755
:10306000E2FEDDE90C70002609F10105834647E028
:1030700001204B4600904FF000470AAA01A90CA876
:10308000FFF7D1FEDDE90DB00C995D46002610B9C1
:1030900009F101000D18B9EB050003D4C0F1FF36AA
:1030A00009F10105A5EB09002BE0B9F1010F01DAE7
:1030B0004FF001090020B9F1110F0090484601DDE1
:1030C000112300E003460AAA01A90CA8FFF7ABFEF2
:1030D000DDE90C704D4600268346207800070AD4AF
:1030E000AB4500DA5D4601A8012D04DD411911F858
:1030F000011C302907D04F4502DA17F1040F04DA1A
:10310000012082460FE06D1EEEE7002F02DCED1B72
:103110003E4403E0781CA84200DD7D1CB81B00F192
:10312000010A4FF000472078000703D4AA4501DBCD
:103130004FF0FF3A0021B7F1004F0DF143088DF831
:10314000431024D002202B23002F01DA7F422D23AD
:103150000A21021EA0F1010000DC5FB197FBF1FC27
:1031600097FBF1F201FB1C7C17460CF1300C08F8C0
:1031700001CDEEE7A8F1010003702188090501D512
:10318000452100E06521A0F1010800F8011C099823
:103190000FA9A1EB0807FF1D00B10120411901EBA8
:1031A000EA70A1693844081A401EA0612078C00660
:1031B00002D42046AFF30080099828B1D4E9012158
:1031C0009047206A401C20622078C00622D5204605
:1031D000AFF300801EE0002E04DBB34502DD01A842
:1031E000805D00E03020D4E901219047206A401C36
:1031F0002062761CAAF101005FEA000A0AD100F001
:1032000085F8C0680168405CD4E901219047206AD4
:10321000401C2062281EA5F10105DCDC07E0D4E992
:10322000012118F8010B9047206A401C2062381ECB
:10323000A7F10107F3DC2046AFF30080032011B0B3
:1032400041E60000074B70B50D467B4400F0B9F82D
:103250000446284600F09AF910B14FF0FF3070BDD7
:10326000204670BD4FEDFFFF0FB4002300B589B0BD
:103270000CA900910B99CB60214B7B440693214B09
:103280007B44079304236FF00042CDE901321E4ACC
:103290007A446B4608920246002003F0BFF809B05A
:1032A0005DF814FB70B506464FF0FF3015460C462E
:1032B000324686B00091CDE90101694600200490B4
:1032C00004A8FFF7D1FF02460498211825B108B1E0
:1032D000084600E020462860049800280DD0002A07
:1032E00002DD0098884208D03246081B69460094E7
:1032F000CDE9010404A8FFF7B7FF06B070BD0000D8
:10330000EB010000030200001301000000487047B9
:10331000B0010020004870479001002030B5B0F1A6
:103320000A024FEA900E71F100034EEA817EB0EB83
:103330000E0061EB91014FEA101E4EEA017E10EB88
:103340000E0041EB11114FEA102E4EEA016E10EB08
:103350000E0041EB11214FEA104E4EEA014E10EBE8
:103360000E0041EB1141401841F100014FEAD0003D
:1033700040EA41704FEAD10110EB80054FEA810429
:1033800044EA907444EB01046D1944EB0404521BAD
:10339000A3414FF0000348BF0A3200D530BD401CA6
:1033A00041F1000130BD10B5044600F01DF9006880
:1033B000005D00F0010010BD01694A1C026108783F
:1033C000704700B58FB0CDE9013100210591054965
:1033D0007944CDE9031011466846FFF78DFC0FB024
:1033E00000BD0000E5FFFFFF2DE9F0411F46044648
:1033F00003260168072A01F4006004DB08B116A562
:1034000005E016A503E008B115A500E015A521F01B
:1034100010002060A069C01EA0610FB1401EA06115
:103420002046AFF300804FB1D4E9012138469047E0
:10343000206A401C2062C01C206206E0206AFAE775
:10344000D4E9012115F8010B9047761EF8D22046E9
:10345000AFF30080BDE8F0814E414E006E616E001A
:10346000494E4600696E6600426842B1016811F833
:10347000013B23B1521EC0E90012184670470121DA
:10348000C160881E704742685AB1C368016843B979
:1034900083688B4205D0491E521CC0E900120020EF
:1034A00070474FF0FF3070472DE9F04781461646D0
:1034B0008AB0354878440DC88DE80D00324878440C
:1034C000801C03AC0DC884E80D0041F69B30084415
:1034D000372190FBF1F290FBF1F5A5F1800501FB9E
:1034E00012041B3C02D56442012000E00020DFF8FA
:1034F00098A080460027FA44AAF1BE0A0EE0E00731
:103500000AD03246684607EB470101230AEB8101E6
:1035100001F06CF88DE8070064107F1C002CEED1E0
:10352000194F7F44AE3F19E0E80715D007EB0410B0
:103530000DF1180A90E80E008AE80E00C068F0420B
:1035400001D1981908903246012306A903A801F079
:103550004DF803AB83E807006D10641C002DE3D128
:103560004FF0010332466946B8F1000F03A802D0BC
:1035700001F012F801E001F039F8C9E90001C9F8D9
:1035800008200AB0BDE8F087DC330000007B00F0C3
:103590008000704700487047900100207546FFF793
:1035A000F9FFAE4605006946534620F00700854600
:1035B00018B020B5FCF708FEBDE820404FF000062B
:1035C0004FF000074FF000084FF0000B21F007010B
:1035D000AC46ACE8C009ACE8C009ACE8C009ACE84E
:1035E000C0098D467047000010B5FFF78FFE001D23
:1035F00010BD00BFFD1900002DE9FF4F06468BB03E
:103600000878FF2806D0491C2D2805D000244FF04B
:10361000000908E000200CE00124F8E709EB890329
:10362000491C00EB43090878FF28F7D114B1C9F110
:1036300000008146107800252C46AA4629462D28F0
:1036400001D02B2804D1521C2D2813D000208246F3
:103650008B461078FF280FD04FF0000C0A21521C27
:10366000A5FB017804FB018105FB0C11C5194BEB8F
:103670000104EEE70120EAE7002108464FF00000D0
:10368000BAF1000F02D000EB80004008C0F3815770
:10369000012F01DD4FF0FF370E9955EA040009EBC9
:1036A00001080BD04FF0020918F5FA7F16DA4FEA3D
:1036B000CA70002F706008DD012007E04FEACA7071
:1036C000C6E900B00FB0BDE8F08F00203060FFF712
:1036D00021FEC0F800901821084616E0B8F5FA7FE0
:1036E00018DD002F02DAF748784401E0F648784404
:1036F000D0E90010C6E9001040EACA707060FFF718
:1037000009FEC0F80090142108460FB0BDE8F04F44
:1037100002F01FBE002108464FF00000B8F1000182
:10372000099002DAC7F1000200E03A4601DAC8F176
:10373000000106A8FFF7B8FE06AB93E8070003AB4D
:1037400083E8070044F23E005BEA0401009058461B
:1037500004D144F21E012C465D460091210C09045F
:10376000014306D10099240444EA15442D0410397C
:10377000009104F07F41014306D10099240244EAFC
:1037800015642D020839009104F07041014306D1FF
:103790000099240144EA15742D01091F009104F0D9
:1037A0004041014306D10099A40044EA9574AD005C
:1037B000891E009104F00041084304D100986D195E
:1037C0006441401E00904FF001033A466846B8F14C
:1037D000000FCDE9014503A902DD00F01CFF01E067
:1037E00000F0EFFEBAF1000F04460D4601D084F060
:1037F0000044002108464FF00000099940F2FF778D
:10380000484010F00C0F07D124F00040284303D0AB
:10381000C4F30A50B84212D1FFF77CFDC0F8009003
:10382000C4F30A50B8420AD1A8487844D0E900103D
:10383000C6E9001004F000410843706042E7C6E9A1
:1038400000543FE72DE9FF4F1F464FF0000A4FF0AD
:10385000FF38454691B0D7E90146CDF83CA0FFF7C7
:1038600055FDC0680168405C1090B96912986D1CE4
:103870008847396A814688470028F6D1B9F1FF3F69
:103880000AD0002E24F4D06411DDB9F12B0F08D03A
:10389000B9F12D0F0BD102E0404615B013E744F407
:1038A0008064B96912986D1C8847761E8146600550
:1038B00004A901D52D2000E02B20002E01F1010BE1
:1038C0000DF130088DF810003FDDB9F1690F08D017
:1038D000B9F1490F05D0B9F16E0F02D0B9F14E0F11
:1038E0001CD13B4601A8009580E85002DDE9121288
:1038F0006FF0020002F096FDC11CCED10EE0B96956
:1039000012986D1C884781461398761E44F4007403
:1039100005600F98401C002E0F9016DDB9F1300F96
:10392000EDD0B9F1780F02D0B9F1580F0DD10F9841
:1039300001280AD13B46CDE90054DDE91212001FEF
:10394000029602F06DFDC11CA7D1109989453ED1A8
:1039500044F0800406E01399681CAAF1010A44F4BB
:1039600000740860B9696D1C1298761E884730286B
:103970008146F0D02BE01099894505D1200603D46B
:10398000761E44F0800418E0484601F070F808B351
:10399000761E0DF123018B4544F4007408D2A9F181
:1039A00030000BF8010B200607D5AAF1010003E057
:1039B000200602D40AF101008246A00502D513991F
:1039C000681C0860B96912986D1C88478146002EF2
:1039D000D1DC53E0002E51DDB9F1650F02D0B9F111
:1039E000450F4BD1A00549D5B9696D1C1298761EBB
:1039F00024F440748847002E81460CDD2B2804D027
:103A0000B9F12D0F07D144F48074B96912986D1C77
:103A10008847761E8146E00501D52D2100E02B2147
:103A200008F8011BCDF8008021E0761E0DF1390168
:103A3000884544F400740CD2A9F1300010F0FF0066
:103A400088F8000002D10099884509D908F10108D9
:103A500006E0E00501D51E4801E042F20F70824603
:103A6000B96912986D1C8847814613980560002E2D
:103A700004DD484600F0FBFF0028D6D1F969129812
:103A80008847FF2053468BF8000088F8000000208C
:103A90000A900B9004AA0CA90AA8FFF7ADFDA00597
:103AA00002D46FF00100F8E614F0240F12D0E00702
:103AB0001CD13868DDE90A12031D3B600068C0E9CB
:103AC000001213E0E8310000DA3100009E300000FF
:103AD000F1D8FFFF0AA9684600F058FFE00705D1BA
:103AE0003868009A011D3960006802602846D4E6F3
:103AF00010B50446AFF300802046BDE81040FCF747
:103B00004FBB00004FF0013C50F8042B51F8043B30
:103B10009A4221D1A2EB0C03934313EACC1317D1A1
:103B200050F8042B51F8043B9A4215D1A2EB0C0338
:103B3000934313EACC130BD150F8042B51F8043BF8
:103B40009A4209D1A2EB0C03934313EACC13DBD0C6
:103B50004FF00000704700BFD01A01BAB1FA81F1EE
:103B600001F0180122FA01F0CB40C1F12001DBB2D3
:103B7000C0B2C01A2CFA01F3D11A914311EAC31151
:103B8000E6D170472DE9FF4F1F464FF03C0987B043
:103B90004FF00042DDE9141001F10108DDF858A0F2
:103BA00002EA4050039000200590834605460446F3
:103BB0000490B969461E08988847AAF1010A029044
:103BC000BAF1000F3BDD02982E2815D0102100F02D
:103BD00016FA00282EDB4FF0010B0599014317D090
:103BE000B9F1000F0BDB4A46C11700F0F5F90543A8
:103BF0000C43A9F1040905E0012004900BE008B191
:103C000045F0010501200590049820B9361D02E019
:103C1000049800B1361FB969089808F1010888476F
:103C2000BBF1000FAAF1010A0290C9D00999C1F8AD
:103C30000080C5E70298702808D0502806D0F9699E
:103C400008988847BBF1000F14D04FE00020029085
:103C50000120BBF1000F049009D0B969089808F160
:103C600001088847AAF10109B9F1000F07DCF969D9
:103C7000089888476FF001000BB0BDE8F08F2B2843
:103C800004D02D280CD14FF0FF300490B96908986A
:103C900008F101088847A9F10109B9F1000FE6DD33
:103CA000411CE4D00A2100F0AAF90028DFDB0299C8
:103CB00008F1010801EB810100EB41000290B969B4
:103CC000089888470A2100F09AF9099AA9F1010990
:103CD000B9F1000FC2F8008001DD0028E7DAF969C8
:103CE000089888470499029800FB016655EA040089
:103CF00004D004F04041090002D006E0039898E0A7
:103D0000A40044EA9574AD00B61E04F0004108001A
:103D100002D16D196441761E159810F0240F03D05E
:103D20004FF00B095C4803E04FF028096FF07D006D
:103D30008246564507DAAAEB06018944B9F1410FDC
:103D400001DD4FF0410901200021A9F1010200F03D
:103D500043F9024628400B462140084301D0012187
:103D600000E00021501E029143F1FF312840214024
:103D7000084301D0012000E000200299834651EA67
:103D80000B014FD0002108464FF00000039900F4CA
:103D9000400039B100EB80004FF4400100EBD070DF
:103DA00001EA60008015012802DD4FF0FF3000E0DD
:103DB00013D0401C36D0029860B3BBF1000F0CD179
:103DC0004A460120002100F007F92840214008431D
:103DD00001D0012000E00020E0B101204A4600218E
:103DE00000F0FAF8034640190A4661412D1A8C4149
:103DF00011D3B9F1400F09DD159810F0240F02D04E
:103E0000AAF1340603E0AAF1170600E0761C0025AB
:103E10004FF0004406E05B1E42F1FF3220EA03054A
:103E200021EA0204CAF10100B04206DA1B490398F4
:103E300008430190002000900EE0039AC4F3D321C0
:103E4000E80A0A43164940EA44500A433146CDE99C
:103E50000002684600F000FE159810F0240F0BD009
:103E60001598C00715D13868DDE90012031D3B60C5
:103E70000068C0E900120CE002A8694600F086FD67
:103E80001598C00705D13868029A011D396000688D
:103E900002604046F0E6000002FCFFFF0000F07FF9
:103EA0000000F03F2DE9FF4F92461D4685B04FF0D0
:103EB0000041DDE9124BDDE914727F1E01EA4B502F
:103EC000414940F0FF4940EA0108002122F020006A
:103ED0004928049102D04E2828D04CE03BA001266E
:103EE00007C88DE80700A9690698641C88477F1EEB
:103EF000014606D41DF8060018B121F020018142C8
:103F00000BD0E96906988847032E34D0082E32D0AA
:103F10006FF0010009B0BDE8F08F761C032E01D0D0
:103F2000082EE0D1601CCAF80000DCE7A9690698F9
:103F3000641C88477F1E2AD420F02000412826D107
:103F4000A9690698641C88477F1E20D420F02000B1
:103F50004E281CD1A9690698641C88477F1E48F426
:103F6000002849F48009CAF8004001D4282806D066
:103F7000E969069888475FEACB7012D022E0A96908
:103F80000698641C88477F1E01D4002803DAE9697B
:103F900006988847BCE72928F1D1641CCAF800407C
:103FA000E9E71BF0240F07D028680499031D2B6054
:103FB0000068C0E9001805E02868021D2A60006852
:103FC000C0F800902046A5E70000F07F494E464922
:103FD0004E49545900000000B2F120030AD5C2F145
:103FE000200301FA02F120FA03F300FA02F041EA99
:103FF0000301704700FA03F14FF0000070473A28C0
:1040000000D2303820F02002412A01D3A2F137003B
:10401000884201D34FF0FF3070475FEA400C08BF81
:1040200091F0000F4FEA8C234FEAC12243EA51512D
:104030004FEA1C5018BF00F5F0404FEA300018BF9F
:1040400041F000415FEA6C5C00F02980BCF1FF3F69
:1040500008BF40F080407047130C06BF12044FF0B9
:10406000100C4FF0000C130E04BF12020CF1080CE0
:10407000130F04BF12010CF1040C930F04BF920044
:104080000CF1020CD30F04BF52000CF1010C1146CD
:104090004FF00002A0F11F00A0EB0C00704711F0E0
:1040A000004F08BF704731F000413FF4D5AF0B0C13
:1040B00006BF09044FF0100C4FF0000C0B0E04BFAC
:1040C00009020CF1080C0B0F04BF09010CF1040CE0
:1040D0008B0F04BF89000CF1020CCB0F04BF490009
:1040E0000CF1010CCCF12003A0EB0C0022FA03F33D
:1040F00002FA0CF241EA030100F10100704720F0DE
:104100007F4C80EA030023F07F47ACEB070303F505
:104110007C5300F0004003F1FF032DE980494FEA92
:10412000154B09B44FEA144325EA0B4E24EA034821
:104130000FF2042606EB132749083E785FEA3202A5
:1041400003FB0667C7F5000707FB06F64FEA54377F
:104150004FEAD64606F1020607FB066CCCF1005C7E
:104160004FEA1C472CEA074C07FB06F40CFB06F54C
:1041700004EB15464FEA961634BF00204FF000407E
:104180004FEAD13706FB07FC4FEA1C4C0CFB0BF740
:10419000D21B03FB0CF761EB07010CFB0EF7B0EB36
:1041A000074072EB17420CFB08F734BFA2EB074243
:1041B000B2EB074261EB17414FEA0C444FEA91071B
:1041C00006FB07FC4FEA1C4C0CFB0BF7B0EBC7409F
:1041D00072EB573203FB0CF734BFA2EBC742B2EBD2
:1041E000C74261EB57310CFB0EF7B0EBC70072EB27
:1041F00057720CFB08F734BFA2EBC702B2EBC70241
:1042000061EB5771039F4FEA816141EA921104EB20
:10421000CC044FEAD1374FEA826206FB07FC42EA40
:1042200090124FEA80604FEA1C4C0CFB0BF7D21B3C
:1042300003FB0CF761EB07010CFB0EF7B0EB07403B
:1042400072EB17420CFB08F734BFA2EB0742B2EB4C
:10425000074261EB17414FEA8C554FEA910704EB97
:104260009C2406FB07FC4FEA1C4C0CFB0BF7B0EB45
:10427000C74072EB573203FB0CF734BFA2EBC742C7
:10428000B2EBC74261EB57310CFB0EF7B0EBC70046
:1042900072EB57720CFB08F734BFA2EBC702B2EB0C
:1042A000C70261EB577115EB4C254FEA816141EA7A
:1042B00092114FEA82624FEAD13742EA901206FB2E
:1042C00007FC44F100044FEA80604FEA1C4C0CFBF1
:1042D0000BF7D21B03FB0CF761EB07010CFB0EF78E
:1042E000B0EB074072EB17420CFB08F734BFA2EBB0
:1042F0000742B2EB074261EB174115EB1C154FEA81
:10430000813141EA92414FEA823242EA90424FEAD9
:1043100080304FEA0C7644F1000448EA03434EEA49
:104320000B484FF0000EB2EB080C71EB030724BFF3
:10433000624639464EEB0E0E4FF0000B001852410C
:1043400049414BEB0B0BB2EB080C71EB03077BF114
:10435000000B24BF624639464EEB0E0E4FF0000BA9
:104360000018524149414BEB0B0BB2EB080C71EBBF
:1043700003077BF1000B24BF624639464EEB0E0E5D
:1043800051EA020718BF46F0010616EB0E7655F10A
:10439000000254F1000103D5BDE88901BDE80088A1
:1043A000BDE88901BDE80048B619524141EB010161
:1043B000A3F10103704780807F7E7D7C7B7A7978D2
:1043C000777676757473727171706F6E6E6D6C6CDA
:1043D0006B6A6A696868676666656464636362617C
:1043E0006160605F5F5E5E5D5D5C5C5B5B5A5A59FD
:1043F0005958585757565655555554545353525269
:104400005251515050504F4F4F4E4E4D4D4D4C4CC0
:104410004C4B4B4B4A4A4A49494948484847474709
:104420004746464645454544444444434343434246
:10443000424242414141000046EA0646A3F570531C
:104440004FEA164646EA42564FEAD22242EA415223
:1044500010B54FEAD121A3F1010300F02FF820F0AD
:10446000004000F1020C00F0004701EB0050114643
:10447000BCF5006F40EA070000D210BDBAF1000F92
:104480000AD01CB503B44FF004004FF004014FF004
:1044900000000FBCBDE810404FF00001BBF1010F60
:1044A000B9BF04484FF0FF310348002140EA07003C
:1044B00010BD00BFFFFFEF7F0000F07F002B9C4688
:1044C00030D477002BD01CB54FEA370703B44FF038
:1044D00010004FF01001BAF1000F06D0BCF1000F30
:1044E000DCBF40F0080040F008014FF000000FBCB6
:1044F000BDE810400BF1010BBBF1010F08BF5FEAF3
:10450000170722BF12F1010211F101014FF0004122
:1045100043F1000300F0004043EA00007047F9D384
:104520005708D0E746EA064613F1400F4FEA164611
:104530001FDD13F1200FDFBF16430A460021203391
:104540005B42BED0C3F1200746EA064602FA07F7EF
:104550004FEA164646EA0706C3F1200722FA03F29D
:1045600001FA07F721FA03F14FF0000342EA0702CC
:10457000A7E746EA020646EA06464FEA164646EA34
:104580000106BCBF46EA0646360C4FF000034FF06A
:1045900000024FF0000194E72DE9804C9A469346C3
:1045A00070B491E8380007C831EA400C48BF34EADB
:1045B000430C03D5FFF7A3FDFFF780FFF0BCBDE878
:1045C000008C2DE9804C9A46934670B491E83800EF
:1045D00007C831EA400C48BF34EA430C03D5FFF763
:1045E0008EFDFFF729FFF0BCBDE8008C2DE9804C63
:1045F0009A46934670B491E8380007C810F0804F8F
:1046000008BF13F0804F03D100F01AF8FFF756FFF0
:10461000F0BCBDE8008C2DE9804C9A46934670B4FE
:1046200091E8380007C810F0804F08BF13F0804FA2
:1046300003D100F005F8FFF7FFFEF0BCBDE8008CE9
:1046400020F07F4780EA030023F07F4C07EB0C0348
:10465000A3F57C5300F00040A3F1FE0392F0000F9D
:1046600000F0B38095F0000F00F077802DE901494C
:104670004FEA11404FEA144621EA004800FB06FCCD
:1046800024EA064708FB06F607FB08F800FB07F7D5
:1046900018EB06484CEB164C4FEA124B18EB074848
:1046A0004FEA15464CEB174022EA0B4E0BFB06FC7B
:1046B00025EA06470EFB06F607FB0EFE0BFB07F787
:1046C0001EEB064E4CEB164C4FF000061EEB074E51
:1046D0004CEB174B18EB0B0840F1000018EB0E0BDE
:1046E00058EB000840F100008F1A4FF000013CBF6A
:1046F000C943661B14BFB5EB040C00213CBFC94382
:10470000F61B4FEA17444EEA8E0E27EA04454FEA9D
:104710001C4704FB07622CEA074C05FB07F70CFB60
:1047200005F604FB0CFC16EB074642EB174216EBB2
:104730000C4642EB1C421BEB060658EB02024141C1
:1047400046EA9E0601D5BDE80189B619524141EB02
:104750000101A3F10103BDE801894FEA14454FEAC5
:10476000114724EA054621EA074C05FB07F406FB3E
:1047700007F70CFB06F105FB0CFC11EB074144EBC2
:1047800017444FEA124711EB0C4144EB1C4422EA58
:10479000074C05FB07F206FB07F70CFB06F605FBCB
:1047A0000CFC16EB074642EB174216EB0C4642EBAD
:1047B0001C456A1854F1000148BF7047B6195241B0
:1047C00041EB0101A3F10103704795F0000F37D0D1
:1047D0004FEA11424FEA144721EA024624EA074C05
:1047E00002FB07F106FB07F70CFB06F402FB0CFCCF
:1047F00014EB074441EB17414FEA154714EB0C4407
:1048000041EB1C4125EA074C02FB07F506FB07F7C5
:104810000CFB06F602FB0CFC16EB074645EB1745B6
:1048200016EB0C4645EB1C42121951F1000148BF32
:104830007047B619524141EB0101A3F101037047E2
:104840004FEA14454FEA114724EA054621EA074C8E
:1048500005FB07F106FB07F70CFB06F24FF000061D
:1048600005FB0CFC12EB074241EB174112EB0C422B
:1048700051EB1C4148BF7047921841EB0101A3F175
:1048800001037047490050EAC12018BF04204A0DB7
:1048900018BF40F0010040F2FF72B2EB515F08BF59
:1048A00040F00200012808BF052070472DE9F041C3
:1048B0004F1E00EBC7010446D1E9000115461E4614
:1048C00037F006020DD02A46334600F0EDFE7F1E7B
:1048D00004EBC703D3E9002300F0D2FB37F0060254
:1048E000F1D1022F25D0042F13D0062F18BFBDE819
:1048F000F0812A46334600F0D7FED4E90A2300F0BF
:10490000BFFB2A46334600F0CFFED4E9082300F06F
:10491000B7FB2A46334600F0C7FED4E9062300F071
:10492000AFFB2A46334600F0BFFED4E9042300F073
:10493000A7FB2A46334600F0B7FED4E9022300F075
:104940009FFB2A46334600F0AFFED4E90023BDE8C2
:10495000F04100F095BB012201F032BD00F090BBA8
:10496000002213461046114600F046BC40F20132C8
:1049700000204FF0E04101F023BD0000024A00207A
:10498000110701F01DBD000001FDFFFF10B5044639
:10499000D1E9000100F002F8206010BDF8B504462E
:1049A0000D466A4600F0A8FA00987E300090002874
:1049B0001EDC002213462046294600F075FD17D064
:1049C000002140F608004FF0000006462046294628
:1049D00000F024FB044640F6080006EA00014FF010
:1049E000000034F0004004BF0220FEF715FA29E071
:1049F0000098FF2828DB002108464FF0000000F453
:104A00004006002213462046294600F0F3FF8CBFE3
:104A1000002501250220FEF7FFF94FF0FF4446B1C3
:104A2000002D0CBF4FF400004FF48000B04218BFBF
:104A3000084C042108464FF00000002D04BF84F00C
:104A40000040F8BD2046F8BD20462946BDE8F840A4
:104A500000F0E4BAFFFF7F7F10B504460A46D4E9B0
:104A60000003194600F074FAC4E9000110BD3038A3
:104A70000A2801D201207047002070472DE9F84F25
:104A800004460D4621F0004000917349814211DC3B
:104A90007249884201DC06D12CB120462946BDE886
:104AA000F84FFFF758BF6E48002DCCBF6D496E49D7
:104AB000BDE8F88F6D49814211DD6D498142D8BF53
:104AC0004FF0FF366DDD20462946FFF7DBFE042858
:104AD00008BFFFF753FF20462946BDE8F88F654918
:104AE000654F25F00045814233DD6449814219DD7F
:104AF000002632464FF080432046294600F0C0FA97
:104B000080468A4601222046294601F059FC0022AF
:104B10003B4600F0B1FF4246534600F06DFB0446B1
:104B20000D463EE001260022BA463B462046294675
:104B300000F0A6FA80460F4600225346204629463A
:104B400000F09AFF42463B4600F056FB04460D46F5
:104B500027E04B4981421BDDDFF828A10226002215
:104B600053462046294600F09FFD00223B4600F0B8
:104B700087FA80460F46002253462046294600F019
:104B80007BFF42463B4600F037FB04460D4608E0FB
:104B9000032622462B4600203B4900F02DFB04460D
:104BA0000D4622462B461046194600F07DFD8B46E9
:104BB000824602460B4600F077FD07460246334820
:104BC00088460B4606217844FFF770FE52465B4646
:104BD00000F06AFD82462E488B463A464346052140
:104BE0007844FFF763FE3A46434600F05DFD024617
:104BF0000B46002E504659460CDA00F041FA224688
:104C00002B4600F051FD01B022462B46BDE8F04F87
:104C100000F026BF00F034FA22462B4600F044FD97
:104C20001C4A7A4402EBC603D3E9002300F024FFB8
:104C300022462B4600F020FF174A7A4402EBC603B7
:104C4000D3E9002300F00CFF009A002AB8BF81F0DE
:104C50000041BDE8F88F0000000010440000F07F24
:104C6000182D4454FB21F93FFB21F9BF0000DC3F24
:104C70000000203E0000F33F0000F03F0000E63F50
:104C8000008003400000F83F0000F0BF161C000049
:104C9000D41B0000721B00003A1B00002DE9F04DF0
:104CA0009446CCF1000423F000464CEA0404594F2A
:104CB00046EAD4749A46884621F00042BC4206D89F
:104CC000454240EA050442EAD474BC4204D9BDE836
:104CD000F04D6246FFF742BEAAF14055A5F17F654F
:104CE00055EA0C040BD0022404EAAA744A4DDFF8FA
:104CF0002CE144EAD87452EA000B04D00CE0BDE881
:104D0000F04DFFF7BBBE002C14BF012CBDE8F08DA9
:104D1000022C30D0032C32D056EA0C0B0AD0BE4203
:104D200020D1BA4209D126F0804622F08042334693
:104D3000114617E000291ADB25E0DFF8E4B0FB4458
:104D4000002C04BFDBE90001BDE8F08D012C02BF9F
:104D5000DBE9000181F00041BDE8F08D022C0AD0B2
:104D6000032C0CD0BA4212D1B8F1000F0BDA2A484A
:104D70002C49BDE8F08D28462B49BDE8F08D28462A
:104D80007146BDE8F08D24482849BDE8F08D921B9E
:104D900012153C2AC4BF204F244E10DCBAF1000F7C
:104DA000BEBF12F13C0F00273E4608DB624600F012
:104DB00023FA21F00041FFF761FE07460E4694B149
:104DC000012C08BF86F000460DD0194A194B022C61
:104DD0003846314615D000F04FFE2A46BDE8F04D6A
:104DE000114B00F049BE002213463846314600F010
:104DF0005BFB04BF0220FEF70FF838463146BDE8E2
:104E0000F08D00F039FE2A46BDE8F04D064B00F06B
:104E100027BE00000000F07F182D4454FB2109C07C
:104E2000CE1A0000FB21F9BFFB210940FB21F93F0D
:104E3000075C143326A6A13C30B583B00446FDF7C9
:104E4000E6FF05460020CDE90000024621466846FF
:104E5000FEF728FA2846FDF7DFFFDDE9000103B081
:104E600030BD000070B514461D460E46002814BF24
:104E700001210021314321F00041C1F17F6101F1A5
:104E8000E041C90F16D1002C14BF01210021294394
:104E900021F00041C1F17F6101F1E041C90F09D169
:104EA0001449B1EB460F08BF00281CD0690008BFA9
:104EB000002C18D0314600F0EFFC024640F2FF70A3
:104EC00030EA11500DD0F017B0EBE17F09D0084661
:104ED00065F31E0084460B462046614600F0C0FD87
:104EE0000246104670BD0120FDF796FFBDE87040F8
:104EF000FFF736BD0000E0FF10B514460022226027
:104F0000114A21F000439342A8BF10BD53EA0002AA
:104F100008BF10BDB3F5801FA8BF226807DA36228C
:104F200001F04EFA6FF0350221F000432260DFF805
:104F30001CC06FF31E510CEB23531A4441F0FF5178
:104F400041F00051226010BD0000F07F02FCFFFF25
:104F50002DE9F04106460C4640F2FF75174635EA4A
:104F600014502BD000221346304600F09DFA25D075
:104F70003A463046214601F023FA06460C4635EA09
:104F8000145010D000221346304600F08DFA15D18F
:104F90000220FDF741FFFFF7F1FC0A46214662F3CC
:104FA0001E01BDE8F0810220FDF736FFFFF7DEFCB1
:104FB0000A46214662F31E01BDE8F08130462146D3
:104FC000BDE8F08110B500290AD00878002807D084
:104FD00005487844FEF796FD002801D0002010BD5A
:104FE0000248784410BD00000A19000002190000B0
:104FF00010B500290AD00878002807D00548784461
:10500000FEF780FD002801D0002010BD0248784442
:1050100010BD0000FA180000F218000021F0004254
:10502000A2F16052B2F5801F01F0004328BFD2F117
:105030007F6C0BD95FEA001C43EAC20242EB50705E
:1050400018BF704728BF20F001007047B2F5801FDD
:10505000BCBF184670474FEA410C1CF5001F02D236
:10506000084601F0CAB870B500F0C8FB000000891E
:10507000FFF7F6BF4FF00040A0F58000704700003A
:1050800010B591EA030F48BF83F0004300F1FC84A0
:10509000841A71EB030C05D2121943EB0C03001BAD
:1050A00061EB0C01DFF824E14FEA1154A4EB135C2F
:1050B0001EEA430F18BF9EEA445F73D023EA0E0333
:1050C000DCF1200E21EA045143F4801332D322FA9A
:1050D0000CFE10EB0E0023FA0CFE41EB0E01CCF19E
:1050E000200E03FA0EFE10EB0E0051F10001B1F597
:1050F000801FCCF1200E32D201EB045112FA0EF2D5
:10510000BDE8104058BF7047401C38BF5FEA4202FC
:1051100018BF7047002814BF20F0010041F10001C2
:105120004FEA410313F5001F38BF7047A1F1C0419A
:1051300000F05ABC012A43EB0302ACF1200CDCF175
:105140001F0E32BF4FF0000E23FA0CF310EB0300DA
:1051500041EB0451B4EB115FD0D0A1EB045101F548
:10516000801149085FEA300001EB04510ED350F181
:10517000000038BF12FA0EFE08D1BDE81040C9E7A2
:10518000401C38BF5FEA4202CAD1C3E7BDE8104005
:105190004FEA410313F5001F38BF7047A1F1C0412A
:1051A00000F022BC9EEA445F08D011EA5E0FBDE821
:1051B000104004BF01F0004100207047BDE81040DE
:1051C00070B500F01BFB00BF64FBBE3E0000E0FFBB
:1051D00002494FF0000001F0C1B800BF0000F87FA5
:1051E000491058BFC1F140415B1058BFC3F1404363
:1051F0008B42EFF3008070472DE9C04130B4DFF8F7
:10520000A0C23CEA111418BF3CEA131400F0EC8071
:1052100081EA03051CEA111444EAD57418BF1CEA9C
:10522000131500F0C780A4EB05044FF0004545EAD4
:10523000C12145EAC32341EA505143EA525304F1E4
:105240007F74994204F500344FEAC0204FEAC2222D
:1052500008BF904200F09C804FEA13650FF24016A1
:10526000765D4FEA134506FB05F7C7F1807706FB2D
:1052700007F74FEAD737A7FB03687642C8F58038AF
:10528000A7FB06CE38BFA8F1010807FB08E64FF0E0
:10529000000EA6FB028CE6FB03CEDCF1000CCEF187
:1052A000004E38BFAEF1010EA6FB0C584FF00007C0
:1052B0004FF00005E6FB0E87A1FB08C6A0FB07CE5A
:1052C00016EB0E0645F10005E1FB076515F1E04E12
:1052D0007EBFA4F580345FEA46066D4116F1800773
:1052E00045F100054FEA17274FEA066647EA0567CA
:1052F000A6F1DE46B6F1805F4FEA15251FD9384684
:1053000024F0010C05EBC471BCF1FE6F01EB0C1134
:1053100002D8F0BCBDE8008124425CBF01F5801ECC
:105320009EEAC47F02D4F0BCBDE80081244238D498
:10533000F0BCA1F1C041BDE8004100F055BB4FEA0F
:10534000D22242EA43524FEAD323A7FB02864FEA16
:10535000D02040EA415007FB03661EEA0E0F4FEAD9
:10536000D12105FB026658BFA6EB0056B6EB0056EE
:105370004FEA520E4EEAC37E18EB0E0E56EB530E5A
:10538000BDD518EB02085E417F1C55F10005B6E75C
:105390004FF480154FF000074FF000064FF0000863
:1053A000ADE7F0BC4FF0000001F1C04101F0004159
:1053B000BDE8008111EA0C1F0CEA131500D00CE0C7
:1053C00013EA0C1F00F025804FF00000F0BC81EACA
:1053D000030101F00041BDE80081F0BCBDE80041DF
:1053E00081EA030100F000BBF0BCBDE8004170B5EC
:1053F00000F004FA097EFC3E00F007B881EA0301E0
:105400004FF0000001F00041704781EA030100F015
:10541000EBBAF0BCBDE800414FF0000021497047F5
:10542000FFFDFBF9F7F5F4F2F0EEEDEBE9E8E6E469
:10543000E3E1E0DEDDDBDAD8D7D5D4D3D1D0CFCDF0
:10544000CCCBCAC8C7C6C5C4C2C1C0BFBEBDBCBB29
:10545000BAB9B8B7B6B5B4B3B2B1B0AFAEADACAB24
:10546000AAA9A8A8A7A6A5A4A3A3A2A1A09F9F9EFE
:105470009D9C9C9B9A9999989797969595949393B0
:10548000929191908F8F8E8E8D8C8C8B8B8A898947
:1054900088888787868585848483838282818180CA
:1054A0000000FF070000F87F51EA030C17D41CF539
:1054B000801F58BFBCF5801F00F10680994218BFBD
:1054C000704708BF9042704707D711F5801F58BF3B
:1054D00013F5801F19D499427047894270471CF513
:1054E000801F08D5BCF5801FF7D58B4218BF7047C9
:1054F00008BF824270474FF4001C1CEB410F38BFBD
:105500001CEB430F01D28B42704770B500F076F967
:10551000922449004FF000514FF08053FFF760BED6
:105520004FEA41034FEA5353A3F58063D3F11E03BF
:10553000C8BFD3F1210C0CDD4FF0004242EAC1227A
:1055400042EA505232FA03FC8CEAE17CACEBE170A7
:105550007047102BC4BF0020704703F5787CBCF166
:10556000FF3F04D06FF0004282EA2100704770B51F
:1055700000F044F94992248000207047F2E70000CF
:105580004FEA1153A3F58063D3F11E03A8BFD3F1F3
:10559000200C08DB4FF0004242EAC12252EA50528E
:1055A00032FA03F0704709420BD4102BC4BF00201D
:1055B000704703F5787CBCF1FF3F05D04FF0FF301A
:1055C00070474FF00000704770B500F017F900BF4A
:1055D0004992248000207047F0E710F0004248BF55
:1055E0004042B0FA80F310FA03F10AD0C3F11D0370
:1055F00003F580634FEA415002EB035202EBD121E5
:1056000070474FF000007047B0FA80F310FA03F1D2
:105610000AD0C3F11D0303F580634FEA41504FEAFE
:10562000035202EBD12170474FF000007047000099
:1056300051EA030C17D41CF5801F58BFBCF5801F1E
:1056400000F10680994218BF704708BF904270472A
:1056500007D711F5801F58BF13F5801F19D4994241
:105660007047894270471CF5801F08D5BCF5801F24
:10567000F7D58B4218BF704708BF824270474FF47E
:10568000001C1CEB410F38BF1CEB430F01D28B42B7
:10569000704770B500F0B2F8922449004FF0005105
:1056A0004FF08053FFF79CBDDFF848C170B51CEA8E
:1056B000111E1EBF1CEA13159EEA0C0F95EA0C0F73
:1056C00000F06F8081EA030423EA4C134EEAD47E93
:1056D00021EA4C1141F4801143F48013AE44A1FB44
:1056E000024CA0FB0365AEF17F7E361955EB0C052D
:1056F000A1FB034C4CF10003A0FB021C16EB0C06B3
:10570000654153F10003094218BF46F0010613F446
:10571000007F0BD14FEA03314FEA0530340341EAF1
:10572000155140EA16506FF003020AE04FEAC32118
:105730004FEAC520F40241EA555140EA56506FF055
:10574000020202EB2E4201EB025585EACE710AD02D
:105750005FEA440C18BF24F0004450F1000041F10E
:10576000000120EAD47040F2FE7C624500D270BD98
:10577000A84214BF4FF080444FF04044002E08BFB1
:105780000024BEF1806FA8BFA1F1C041BDE8704008
:1057900080F22A814FF0000001F1C04101F0004188
:1057A00070479EEA0C0F0CEA131518BF95EA0C0F10
:1057B00006D04FF0000081EA030E0EF0004170BDEC
:1057C00000F01CF88900013E00F007B800F009B8AD
:1057D0004FEA430C5FEA5C5C08D081EA030100F009
:1057E00003B94FEA410C5FEA5C5CF6D14FF0000070
:1057F000014970470000FF070000F87F0EF1020E1C
:105800002EF0030E5EF8046B364205D4012A43EBFA
:10581000030515F5001F12D8012841EB010C1CF5FA
:10582000001F0CD80ED14FEAD17C15F5001F0CEBF0
:105830004C0C0CF1020C08BF4CEBD37C04E04FF095
:10584000080C01E04FEAD37C0CEB4C0526FA05F678
:1058500006F00706B6F1040C06D20EEB860CBDE886
:1058600070404CF0010C6047DFE80CF0090B0202BD
:105870004FF000414FF00000A1F5002170BD194626
:105880001046012851EB010418BFD4F5001484BF61
:10589000002001F0004170BDDFF844C170B53CEA62
:1058A000111418BF3CEA131500F08F8011F1004F5E
:1058B0001CEA13150CEA111468BF45F0050518BF62
:1058C00011EA0C1F00F079802E4621EA4C1123EAE0
:1058D0004C1341F4801143F48013A5F58035AC429C
:1058E0003DDD801A9941A4F5803609D54042C1F1C9
:1058F000000134BFB1F10101B1F1000185F00105F2
:1059000011F4F01F08D011F4801FE8D1400041EBE2
:105910000101A4F58034F6E721F00041B1FA81F6E7
:10592000202E04BFB0FA80FE0EF12006A6F10B0671
:10593000B6F1200EA4EB06440CD2C6F1200E01FAFB
:1059400006F120FA0EF641EA0601CEF1200600FA31
:1059500006F003E000FA0EF14FF00000BFE750EA56
:10596000410E23D04FEA244EBEEB254F0FDB994268
:1059700008BF904204D00AD3520043EB0303B0E7C0
:105980004FEA1646B6EB144F08BF85F00105B4F593
:10599000803401EB041181EAC57100DB70BD01F1B7
:1059A000C0414FF0000001F0004170BD4FEA457169
:1059B0004FF0000001F0004170BD1CEA131F09D038
:1059C0004FF0000001F0004170BDFFF717FF00BF6E
:1059D000EDFFFF3EBDE870404FF000000149704709
:1059E0000000FF070000F87F0808A0F500114FEA4B
:1059F0003101704753EA010C17D41CF5801F58BFC2
:105A0000BCF5801F00F106808B4218BF704708BFAD
:105A10008242704707D713F5801F58BF11F5801FCA
:105A200019D48B4270479B4270471CF5801F08D5E4
:105A3000BCF5801FF7D5994218BF704708BF904248
:105A400070474FF4001C1CEB430F38BF1CEB410F99
:105A500001D2994270470FB40CBC03BCFFF719BECA
:105A600091EA030F10B581F000413FF511AB83F0CF
:105A7000004300F009B8000010B591EA030F48BFD9
:105A800083F000433FF504AB841A71EB030C07D29B
:105A900012198CF0004C43EB0C03001B61EB0C0162
:105AA000DFF8A4E14FEA1154A4EB135C1EEA430FA4
:105AB00018BF9EEA445F00F0B08023EA6E035242B2
:105AC00021EA0451C3EB6E0338BF5B1EDCF1200EEC
:105AD00025D322FA0CFE10EB0E0043FA0CFE41EB2C
