:020000040800F2
:1000000038080020B5010008FD390008FF39000854
:10001000033A0008073A00080B3A00080000000005
:100020000000000000000000000000000F3A00087F
:10003000113A000800000000133A0008153A0008C1
:10004000CF010008CF010008CF010008CF01000850
:10005000CF010008CF010008CF010008CF01000840
:10006000CF010008CF010008CF010008CF01000830
:10007000CF010008CF010008CF010008CF01000820
:10008000CF010008CF010008CF010008CF01000810
:10009000CF010008CF010008CF010008CF01000800
:1000A000CF010008CF010008CF010008CF010008F0
:1000B000CF010008CF010008173A0008CF0100085F
:1000C000CF010008CF010008CF010008CF010008D0
:1000D000CF010008B9210008CF010008CF010008B6
:1000E000CF010008CF010008CF01000800F002F89E
:1000F00000F050F80AA090E8000C82448344AAF172
:100100000107DA4501D100F045F8AFF2090EBAE86F
:100110000F0013F0010F18BFFB1A43F0010318473B
:100120005C7500007C750000103A24BF78C878C167
:10013000FAD8520724BF30C830C144BF04680C60ED
:10014000704700000023002400250026103A28BF35
:1001500078C1FBD8520728BF30C148BF0B60704739
:10016000662906F0DE87642903F078840020704752
:100170001FB504F013F804000020002105F0FAFD7B
:10018000401C60600020002105F0DEFDE0601FBD26
:1001900010B510BD04F04AF91146FFF7E9FF03F06E
:1001A000D5FB04F0C3FB03B4FFF7F2FF03BC01F07F
:1001B000A9FF00000948804709480047FEE7FEE71D
:1001C000FEE7FEE7FEE7FEE7FEE7FEE7FEE7FEE707
:1001D00004480549054A064B70470000CD1C00083D
:1001E000ED00000838020020380800203804002004
:1001F0003804002031490143314A1160704770B51D
:10020000002100230F22C4780CB32D4C246804F481
:10021000E064C4F5E064210AC1F10403CA404478F3
:1002200004FA03F18478144021430901254C06782F
:10023000A155047804F01F050124AC4005786D1128
:100240004FF0E02606EB8505C5F8004109E004788B
:1002500004F01F050124AC401B4D0678761145F8CB
:10026000264070BD194A0A400243154B1B1F1A60F5
:10027000704739B1124A121D12680243104B1B1D00
:100280001A6006E00E4A121D126882430C4B1B1DB9
:100290001A607047042808D14FF0E021096941F045
:1002A00004014FF0E022116107E04FF0E0210969FD
:1002B00021F004014FF0E022116170470000FA05BF
:1002C0000CED00E000E400E080E100E080FFFF1FB3
:1002D00010B50446CA48844208D10121042000F028
:1002E00027FB0021042000F023FB46E0C5488442A0
:1002F00008D10121082000F01BFB0021082000F09C
:1003000017FB3AE0C048844208D10121102000F0D8
:100310000FFB0021102000F00BFB2EE0BB488442B5
:1003200008D10121202000F003FB0021202000F053
:10033000FFFA22E0B648844208D10121402000F0B3
:10034000F7FA0021402000F0F3FA16E0B1488442A9
:1003500008D10121802000F0EBFA0021802000F07C
:10036000E7FA0AE0AC48844207D10121801500F089
:10037000DFFA0021A01500F0DBFA10BD10B5012155
:10038000084600F0D5FA0021012000F0D1FA10BD96
:100390002DE9F0410246002500260020002300241C
:1003A000002791F803C00CF00F0591F803C01CF072
:1003B000100F03D091F802C04CEA050591F800C077
:1003C000BCF1000F31D0146800202BE04FF0010C7D
:1003D0000CFA00F3B1F800C00CEA03069E4220D1EB
:1003E00083004FF00F0C0CFA03F7BC4305FA03FC33
:1003F0004CEA040491F803C0BCF1280F06D14FF079
:10040000010C0CFA00FCC2F814C00AE091F803C019
:10041000BCF1480F05D14FF0010C0CFA00FCC2F8FA
:1004200010C0401C0828D1D31460B1F800C0BCF142
:10043000FF0F34DD546800202EE000F1080C4FF06F
:10044000010808FA0CF3B1F800C00CEA03069E425A
:1004500021D183004FF00F0C0CFA03F7BC4305FACF
:1004600003FC4CEA040491F803C0BCF1280F05D149
:1004700000F1080C08FA0CF8C2F8148091F803C0D7
:10048000BCF1480F07D100F1080C4FF0010808FA41
:100490000CF8C2F81080401C0828CED35460BDE888
:1004A000F0814FF6FF710180022181700421C1703B
:1004B00070470246002093680B4201D0012000E003
:1004C000002070470146886880B2704702460020CD
:1004D000D3680B4201D0012000E0002070470146A4
:1004E000C86880B2704701617047416170470AB1C6
:1004F000016100E041617047C16070474FF4803294
:100500000A43826181618261826982697047024621
:100510000020424B18684FF68073184040EA0210E2
:1005200008433E4B186070473D49C8617047F0B5BD
:100530000A46002300240021002500F00046B6F101
:10054000004F02D1354EF16901E0344E7168C0F3BD
:10055000034583B200F44016B6F5401F08D121F0E0
:1005600070612E4E766826F070662C4F7E6012E029
:1005700000F48016B6F5801F06D1032606FA05F4AE
:10058000A14341F0706106E0460D360103FA06F61C
:10059000B14341F0706122B1460D360103FA06F60F
:1005A000314300F00046B6F1004F02D11B4EF1611D
:1005B00001E01A4E7160F0BD30B500228B071C0FB0
:1005C0000F2303FA04F2154B08338C1053F8243030
:1005D0009343124C08348D1044F8253023468C1078
:1005E00053F824308C07240F00FA04F423430B4CF7
:1005F00008348D1044F8253030BD0A490860704732
:1006000000080140000C01400010014000140140AE
:1006100000180140001C0140002001400000014082
:1006200000002042DC002042DD48006840F001006C
:10063000DB49086008464068DA490840D849486004
:1006400008460068D8490840D5490860084600684F
:1006500020F4802008600846406820F4FE004860CE
:100660004FF41F0088607047CD49096821F480313C
:10067000CB4A11601146096821F480211160B0F560
:10068000803F03D0B0F5802F0ED106E0C449096841
:1006900041F48031C24A116007E0C149096841F460
:1006A000A021BF4A116000E000BF00BF704710B535
:1006B00001460022002300204A11012A02D1B84C31
:1006C000236806E0022A02D1B54C236A01E0B44C4B
:1006D000636A01F01F02012494401C4201D00120F2
:1006E00000E0002010BD38B5002000900024002557
:1006F00000BF3120FFF7DBFF05460098401C00904B
:100700000098B0F5A06F01D0002DF2D03120FFF796
:10071000CEFF08B1012400E00024204638BD014688
:1007200000209F4A106820F0F80040EAC1001060E5
:1007300070479E490860704702460020984B5868F1
:1007400020F47C1042EA01031843954B586070472F
:1007500096490866704701460020914A506820F08B
:1007600003000843506070478D48406800F00C005B
:100770007047014600208A4A506820F0F000084384
:100780005060704701460020854A506820F4E060C0
:1007900008435060704701460020814A506820F4A9
:1007A000605040EAC1005060704729B17C4A527ADB
:1007B00002437B4B5A7204E0794A527A8243784B67
:1007C0005A7270477A490860704701460020744A9F
:1007D000506820F440400843506070470021754A3B
:1007E00011706F4A82F82010012802D0042808D125
:1007F00003E001216F4A117004E005216D4A117078
:1008000000E000BF00BF70476B4908607047644953
:10081000096A0143624A11627047674944390860B6
:10082000704730B500210022002400235C4D6D6824
:1008300005F00C0121B1042905D0082923D105E0D8
:100840005E4D056022E05D4D05601FE0544D6D6812
:1008500005F47012524D6D6805F48034022505EBE5
:1008600092421CB9564D554305600BE04C4D6D68E6
:1008700015F4003F03D0524D5543056002E04F4D43
:100880005543056002E04D4D056000BF00BF444D7B
:100890006D6805F0F00109094A4D6B5C0568DD40A3
:1008A00045603F4D6D6805F4E061090A454D6B5C9C
:1008B0004568DD4085603A4D6D6805F46051C90AB0
:1008C000404D6B5C4568DD40C560354D6D6805F495
:1008D0004041890B3C4D6B5CC568B5FBF3F5056188
:1008E00030BD29B12E4A526902432D4B5A6104E0B2
:1008F0002B4A526982432A4B5A61704729B1284AD0
:1009000092690243264B9A6104E0254A9269824328
:10091000234B9A61704729B1214AD2690243204B87
:10092000DA6104E01E4AD26982431D4BDA617047E6
:1009300029B11B4AD2680243194BDA6004E0184A15
:10094000D2688243164BDA60704729B1144A1269A3
:100950000243134B1A6104E0114A12698243104B9F
:100960001A61704714494039086070470F49C864DC
:1009700070470B49C87170470948406A40F0807061
:1009800007494862704701460020054A92680A42BA
:1009900001D0012000E000207047014988727047B3
:1009A000001002400000FFF8FFFFF6FE0000424288
:1009B000D8004242201002408004424200127A00D5
:1009C00000093D00000000201000002010B5044682
:1009D000FE48844208D10121C014FFF7A9FF00217D
:1009E000E014FFF7A5FFC4E0B4F1804F08D1012166
:1009F0000846FFF7AAFF00210120FFF7A6FFB8E095
:100A0000F348844208D101210220FFF79EFF002114
:100A10000220FFF79AFFACE0EE48844208D10121A2
:100A20000420FFF792FF00210420FFF78EFFA0E0D3
:100A3000E948844208D101210820FFF786FF002100
:100A40000820FFF782FF94E0E448844208D10121A6
:100A50001020FFF77AFF00211020FFF776FF88E0D3
:100A6000DF48844208D101212020FFF76EFF0021DA
:100A70002020FFF76AFF7CE0DA48844208D1012198
:100A80004014FFF755FF00216014FFF751FF70E09D
:100A9000D548844209D10121C804FFF749FF00214C
:100AA0004FF40020FFF744FF63E0D048844209D1AF
:100AB00001210805FFF73CFF00214FF48010FFF7EC
:100AC00037FF56E0CA48844209D101214805FFF7A3
:100AD0002FFF00214FF40010FFF72AFF49E0C5481F
:100AE000844208D101214020FFF72FFF0021402040
:100AF000FFF72BFF3DE0C048844208D10121802050
:100B0000FFF723FF00218020FFF71FFF31E0BB48E4
:100B1000844208D101218015FFF717FF0021A0159D
:100B2000FFF713FF25E0B648844209D101210804EC
:100B3000FFF7FEFE00214FF48030FFF7F9FE18E0CA
:100B4000B048844209D101214804FFF7F1FE002199
:100B50004FF40030FFF7ECFE0BE0AB48844208D1C5
:100B600001218804FFF7E4FE00214FF48020FFF705
:100B7000DFFE10BD00220288944B98420ED0994BA4
:100B800098420BD0B0F1804F08D0914B984205D0DD
:100B9000904B984202D0904B984204D14FF68F73FD
:100BA0001A404B881A438D4B984207D08C4B984281
:100BB00004D04FF6FF431A40CB881A4302808B883B
:100BC00083850B880385814B98420BD0854B9842D7
:100BD00008D08B4B984205D08A4B984202D08A4B62
:100BE000984201D10B7A038601238382704770B546
:100BF000002400220023058C4FF6FE763540058444
:100C0000028C8388048B4FF68F752C40B51E2C40C8
:100C10000D882C43751E2A400D892A434D882A438E
:100C20006A4DA8420BD06F4DA84208D0744DA8421F
:100C300005D0744DA84202D0734DA84213D14FF68F
:100C4000F7752A404D892A434FF6FB752A408D8857
:100C50002A434FF6FF652B404FF6FF552B408D89F9
:100C60002B43CD892B4383800483CD8885860284E2
:100C700070BD70B5002400220023058C4FF6EF767E
:100C800035400584028C8388048B48F6FF752C4020
:100C90004FF6FF452C400D884FF6FF7606EA0525F6
:100CA0002C434FF6DF752A400D8906EA05152A43C5
:100CB0004D8806EA05152A43444DA84202D0494D05
:100CC000A8421DD14FF67F752A404D894FF6FF7619
:100CD00006EA05152A434FF6BF752A408D8806EAB5
:100CE00005152A434FF6FF352B404FF2FF752B4079
:100CF0008D8906EA85052B43CD8906EA85052B43B8
:100D000083800483CD880587028470BD70B500247C
:100D100000220023058C4FF6FF6635400584028CC7
:100D20008388848B4FF68F752C404FF6FC752C40D2
:100D30000D882C434FF6FF552A400D894FF6FF765C
:100D400006EA05252A434D8806EA05252A431F4D54
:100D5000A84202D0234DA8421DD14FF2FF752A4070
:100D60004D894FF6FF7606EA05252A434FF6FF35F3
:100D70002A408D8806EA05252A434EF6FF752B404A
:100D80004DF6FF752B408D8906EA05152B43CD895D
:100D900006EA05152B4383808483CD8885870284EA
:100DA00070BD70B5002200230024058C4EF6FF763E
:100DB00035400584038C8488828B48F6FF752A4071
:100DC0004FF6FF452A400D8820E00000002C01402E
:100DD0000004004000080040000C004000100040EB
:100DE0000014004000340140004C0140005001401C
:100DF0000054014000180040001C0040002000404A
:100E00000040014000440140004801404FF6FF7699
:100E100006EA05252A434DF6FF752B400D8906EAA3
:100E200005352B434D8806EA05352B43FA4DA8427C
:100E300002D0FA4DA84208D14BF6FF752C408D899F
:100E40004FF6FF7606EA85152C4384808283CD8891
:100E5000A0F84050038470BD828B4FF2FF331A40DC
:100E60008283828B4FF6FF7303EA01231A43828346
:100E70007047F0B50C461546002200210026078C6D
:100E80004EF6FF7C07EA0C070784828B018C4FF635
:100E9000FF7707EA043640F6FF473A404FF6FF7700
:100EA00007EA05273A434FF6FF7707EA03373A4345
:100EB000D94FB8420ED0D94FB8420BD0B0F1804FC5
:100EC00008D0D74FB84205D0D64FB84202D0D64F3F
:100ED000B84206D14DF6FF77394046F48057394382
:100EE00005E047F6FF57394044F480573943828381
:100EF0000184F0BD828B4FF6F3731A408283828B9C
:100F00000A4382837047F0B50C4615460022002143
:100F10000026078C4FF6FF6C07EA0C070784828BCC
:100F2000018C4FF6FF7707EA04264FF60C773A401C
:100F30004FF6FF7707EA03172F433A43B64FB842FD
:100F40000ED0B64FB8420BD0B0F1804F08D0B44F9E
:100F5000B84205D0B34FB84202D0B34FB84206D121
:100F60004FF6FF57394046F48077394305E04FF29A
:100F7000FF57394044F48077394382830184F0BDC0
:100F8000028B4FF2FF331A400283028B4FF6FF733E
:100F900003EA01231A4302837047F0B50C46154655
:100FA000002200210026078C4FF6EF7C07EA0C0791
:100FB0000784028B018C4FF6FF7707EA041640F690
:100FC000FF473A404FF6FF7707EA03373A434FF6B9
:100FD000FF7707EA05273A438F4FB8420ED08F4F6D
:100FE000B8420BD0B0F1804F08D08D4FB84205D039
:100FF0008C4FB84202D08C4FB84206D14FF6DF7703
:10100000394046F01007394305E04FF65F77394025
:1010100044F01007394302830184F0BD028B4FF680
:10102000F3731A400283028B0A4302837047F0B5C0
:101030000C46154600220021068C4FF6FE773E40F6
:101040000684028B018C4FF60C7632407E1C06EA39
:1010500003162E433243704EB0420ED06F4EB04254
:101060000BD0B0F1804F08D06D4EB04205D06D4E20
:10107000B04202D06C4EB04206D14FF6FD76314000
:1010800044F00106314305E04FF6F576314044F077
:101090000106314302830184F0BD70B505460C465C
:1010A0005D4885420ED05D4885420BD0B5F1804F3A
:1010B00008D05B48854205D05A48854202D05A483C
:1010C000854200D100E000BF208850B92389A28862
:1010D00061882846FFF7ABFFE1882846FFF79EFFAF
:1010E00025E0208804280AD12389A288618828461F
:1010F000FFF753FFE1882846FFF742FF17E02088FB
:1011000008280AD12389A28861882846FFF7FBFEB8
:10111000E1882846FFF7EEFE09E02389A28861886E
:101120002846FFF7A6FEE1882846FFF795FE70BD2A
:101130002DE9F04105460C4600260127608808B9D4
:10114000022600E00026A088012801D1022700E045
:1011500001272088A0B92389A28861882846FFF743
:1011600066FFE1882846FFF759FF23893A46314652
:101170002846FFF712FFE1882846FFF701FF13E03A
:101180002389A28861882846FFF707FFE18828465F
:10119000FFF7F6FE23893A4631462846FFF747FF18
:1011A000E1882846FFF73AFFBDE8F0810A884B88BE
:1011B0001A438B881A43CB881A430B891A434B89ED
:1011C0001A438B891A43A0F8442070474FF6FF71E9
:1011D000818000210180C18041800172704700211F
:1011E000018041808180C180018141818181C181F3
:1011F0007047002101804180012181800021C18050
:10120000018170470021018041808180C18001817E
:101210004181818170470000002C01400034014071
:101220000004004000080040000C004021B102888A
:1012300042F00102028004E002884FF6FE731A4079
:101240000280704731B1B0F8442042F40042A0F867
:10125000442005E0B0F84420C2F30E02A0F8442078
:1012600070471AB183890B43838102E083898B43E2
:10127000838170478182704741EA0203A0F84830B9
:1012800070471AB183890B43838102E083898B43C2
:101290008381704701894FF6F872114001817047D0
:1012A0000A46002101894FF68F73194011430181CD
:1012B000704730B504460D4629462046FFF7F0FF3B
:1012C000208940F00700208130BD2DE9F04104461F
:1012D0000D4616461F46602D06D13B46012231467B
:1012E0002046FFF75AFE05E03B46012231462046E4
:1012F000FFF79DFE29462046FFF7D2FF208940F0E8
:1013000007002081BDE8F08130B50C46002101893D
:10131000C9B24FF6FF7505EA032515432543294356
:10132000018130BD2DE9F04105460E46174698462D
:10133000002443463A4631462846FFF7E5FF2C890C
:101340004FF6F870044044F007044FF68F700440E5
:1013500044F070042C81BDE8F081F0B504460D46E0
:1013600016461F463B46324629462046FFF7CCFF2D
:10137000208940F480402081F0BD01858282704741
:101380000A46002101884FF68F73194011430180EE
:101390007047F0B50C4615461E460021002200237A
:1013A0000189028B038C4FF6F877394021434FF6C1
:1013B000FC473A4040F201173A434FF6DD773B4095
:1013C0004FF6FF7707EA06172F433B43018102835D
:1013D0000384F0BD0A460021018B4FF68F7319403C
:1013E0001143018370470A460021018B48F6FF73C1
:1013F00019404FF6FF7303EA022319430183704734
:101400000A460021818B4FF68F7319401143818367
:1014100070470A460021818B48F6FF7319404FF64A
:10142000FF7303EA022319438183704721B10288C5
:1014300042F08002028004E002884FF67F731A4077
:101440000280704721B1828842F00402828004E069
:1014500082884FF6FB731A408280704721B18288E0
:1014600042F00802828004E082884FF6F7731A4047
:101470008280704721B1828842F00102828004E0BC
:1014800082884FF6FE731A40828070470A46002118
:10149000018B4FF6F77319401143018370470A46D9
:1014A0000021018B4FF2FF7319404FF6FF7303EADF
:1014B00002231943018370470A460021818B4FF6AE
:1014C000F77319401143818370470A460021818BCD
:1014D0004FF2FF7319404FF6FF7303EA02231943DB
:1014E000818370470A460021018B4FF6FB73194038
:1014F0001143018370470A460021018B4FF6FF33E9
:1015000019404FF6FF7303EA022319430183704722
:101510000A460021818B4FF6FB73194011438183EA
:1015200070470A460021818B4FF6FF3319404FF672
:10153000FF7303EA02231943818370470A4600219F
:10154000018B4FF67F7319401143018370470A46A0
:101550000021018BC1F30E014FF6FF7303EA022352
:101560001943018370470A460021818B4FF67F7330
:1015700019401143818370470A460021818BC1F3D2
:101580000E014FF6FF7303EA02231943818370476C
:101590000A460021018C4FF6FD7319401143018466
:1015A00070470A460021018C4FF6F773194011432A
:1015B000018470470A460021018C4FF6DF73194001
:1015C0004FF6FF7303EA02131943018470470A467A
:1015D0000021018C4FF67F7319404FF6FF7303EA29
:1015E00002131943018470470A460021018C4FF60B
:1015F000FF5319404FF6FF7303EA02231943018496
:1016000070470A460021018C4FF2FF7319404FF6D4
:10161000FF7303EA02231943018470470A4600213D
:10162000018C4DF6FF7319404FF6FF7303EA023346
:1016300019430184704730B5002301248C40A3B2C4
:10164000048C9C430484048C02FA01F5ADB22C4353
:10165000048430BD30B5002304248C40A3B2048C34
:101660009C430484048C02FA01F5ADB22C4304843B
:1016700030BD70B5034600200024184618300125FF
:101680008D40ACB21D8CA5431D8409B1082909D138
:1016900000EB6100056825F07005056005681543DD
:1016A00005600EE00D1FC5F34E052844056825F4BE
:1016B000E045056005684FF6FF7606EA02263543E9
:1016C000056070BD21B1028842F00202028004E090
:1016D00002884FF6FD731A400280704721B10288DC
:1016E00042F00402028004E002884FF6FB731A40C5
:1016F0000280704721B1828842F08002828004E03B
:1017000082884FF67F731A408280704702884FF6B6
:10171000F7731A40028002880A4302807047828869
:101720004FF68F731A40828082880A438280704706
:1017300002894FF6F8731A40028102890A43028136
:10174000704702894FF67F731A40028102890A436B
:101750000281704781847047818570478186704718
:101760000187704781877047A0F840107047028852
:101770004FF6FF431A40028002880A4302807047F6
:101780000146888E70470146088F70470146888F52
:1017900070470146B1F8400070470146888C704799
:1017A0000146088D704702460020138A0B4201D083
:1017B000012000E000207047CA430282704730B524
:1017C0000246002000230024158A05EA01039589BA
:1017D00005EA010413B10CB1012000E0002030BD86
:1017E000CA4302827047000010B50446FB48844299
:1017F00009D101218803FFF79BF800214FF48040B5
:10180000FFF796F832E0F648844209D101214804F6
:10181000FFF79BF800214FF40030FFF796F825E022
:10182000F048844209D101218804FFF78EF8002195
:101830004FF48020FFF789F818E0EB48844209D183
:101840000121C804FFF781F800214FF40020FFF7C1
:101850007CF80BE0E548844208D101210805FFF738
:1018600074F800214FF48010FFF76FF810BD2DE9D8
:10187000F04786B005460E460024A24600BFA146AA
:101880000027B08900B100BF2F462C8A4CF6FF70AC
:101890000440F08804432C82AC894EF6F3100440D7
:1018A000B08831890843718908430443AC81AC8A0C
:1018B0004FF6FF400440B0890443AC8201A8FEF714
:1018C000B0FFC648874202D1DDF810A001E0DDF884
:1018D0000CA0A88910F4004F08D00AEBCA0000EB56
:1018E0000A1031684900B0FBF1F807E00AEBCA00C2
:1018F00000EB0A1031688900B0FBF1F86420B8FBF6
:10190000F0F004012009642101FB1089A88910F47A
:10191000004F08D0322000EBC900B0FBF1F000F01E
:101920000700044308E0322000EB09106421B0FBFB
:10193000F1F000F00F0004432C8106B0BDE8F08701
:101940004FF41651016000218180C18001810C217A
:10195000418100218181704710B502460020108A24
:101960004FF2FF0318400B884C8823438C88234395
:10197000CC8823431843108210BD00210180418090
:101980008180C180704721B1828942F400528281F6
:1019900004E082894DF6FF731A4082817047F0B5EA
:1019A00003460024002600250020A1F510676A3FA9
:1019B00000D100BF1846C1F3421401F01F060127F1
:1019C00007FA06F5012C01D10C3004E0022C01D1FC
:1019D000103000E014301AB107682F43076002E0AE
:1019E0000768AF430760F0BD1AB1838A0B43838257
:1019F00002E0838A8B4383827047028A4FF6F0733A
:101A00001A400282028A0A430282704782894FF298
:101A1000FF731A40828182890A438281704721B113
:101A2000828942F00202828104E082894FF6FD73CE
:101A30001A4082817047028A4FF6DF731A40028291
:101A4000028A0A430282704721B1028A42F480422C
:101A5000028204E0028A4BF6FF731A40028270474A
:101A6000C1F308028280704701468888C0F30800ED
:101A70007047818941F0010181817047028BD2B2A8
:101A80000283028B42EA012202837047028B02F436
:101A90007F420283028B0A430283704721B1828A0C
:101AA00042F02002828204E0828A4FF6DF731A40FD
:101AB0008282704721B1828A42F01002828204E061
:101AC000828A4FF6EF731A408282704721B1828A70
:101AD00042F00802828204E0828A4FF6F7731A40CD
:101AE0008282704721B1828942F40042828103E000
:101AF0008289C2F30E028281704721B1828A42F448
:101B00000062828204E0828A4FF2FF731A4082826E
:101B10007047828A4FF6FB731A408282828A0A4398
:101B20008282704721B1828A42F00202828204E0FE
:101B3000828A4FF6FD731A40828270470246002067
:101B4000B1F5007F00D100BF13880B4201D0012006
:101B500000E00020704701F40072B2F5007F00D170
:101B600000BFCA430280704770B5024600240023BC
:101B700000250020A1F510666A3E00D100BFC1F328
:101B8000421501F01F03012606FA03F3012D02D1CD
:101B90009689334006E0022D02D1168A334001E0D7
:101BA000968A33400C12012606FA04F41688344053
:101BB00013B10CB1012000E0002070BD10B500226F
:101BC0000023A1F510646A3C00D100BF0A12012471
:101BD0009440A3B2DC43048010BD000000380140F3
:101BE0000044004000480040004C004000500040CD
:101BF0000CB50020019000906B48006840F48030E4
:101C00006949086000BF6848006800F4003000902F
:101C10000198401C0190009818B90198B0F5A06F88
:101C2000F1D16148006810F4003F02D0012000901B
:101C300001E0002000900098012842D15B48006834
:101C400040F01000594908600846006820F0030081
:101C500008600846006840F002000860524840688A
:101C6000514948600846406848600846406840F46A
:101C7000806048600846406820F47C104860084650
:101C8000406840F4E81048600846006840F0807002
:101C9000086000BF4448006810F0007FFAD0424856
:101CA000406820F00300404948600846406840F022
:101CB0000200486000BF3C48406800F00C00082863
:101CC000F9D10CBD10B5FFF793FF10BD10B5364824
:101CD000006840F001003449086008464068344913
:101CE00008403149486008460068324908402E499A
:101CF00008600846006820F48020086008464068B4
:101D000020F4FE0048604FF41F008860FFF7DAFF00
:101D10004FF000602849086010BD10B50021002078
:101D20000022214B5B6803F00C0121B1042906D08D
:101D3000082928D107E0214B214C236027E01F4BC5
:101D40001F4C236023E0184B5B6803F47010164BA4
:101D50005B6803F48032022303EB904022B9194BF5
:101D60004343174C23600DE00F4B5B6813F4003FB7
:101D700004D0144B4343124C236003E00F4B434306
:101D80000F4C236003E00D4B0D4C236000BF00BFE0
:101D9000054B5B68C3F303130B4CE15C084B1B68FA
:101DA000CB40074C236010BD0010024000200240D1
:101DB0000000FFF8FFFFF6FE08ED00E000127A00D9
:101DC0001400002000093D0018000020014601EB2E
:101DD000C1024FF0E0235A6100229A6101221A6188
:101DE00000BF4FF0E022106910F0010F02D010F494
:101DF000803FF6D000224FF0E0231A619A617047CD
:101E0000014601EBC1024FF47A735A434FF0E023CD
:101E10005A6100229A6101221A6100BF4FF0E0224C
:101E2000106910F0010F02D010F4803FF6D00022AC
:101E30004FF0E0231A619A61704704484FF0E021A7
:101E4000486100208861012008617047FEFFFF00A3
:101E500000B589B001210420FEF750FD012108469C
:101E6000FEF759FD0720ADF8200018208DF823005B
:101E700003208DF8220008A99F48FEF789FA4FF049
:101E80008040FEF7A3FD0020ADF81A002020ADF839
:101E900016000020ADF8140040F29F50ADF8180075
:101EA00005A94FF08040FEF765FE6020ADF8040004
:101EB0000020ADF80C000120ADF806000020ADF8C0
:101EC0000A0001A94FF08040FEF791FE01A94FF0F2
:101ED0008040FEF7CEFE01A94FF08040FEF716FFCE
:101EE0000821C806FFF7D2FA0821C806FFF7D7FA7B
:101EF0000821C806FFF7E0FA01218807FFF796FAE4
:101F000001218807FFF792F909B000BD1FB5012133
:101F10000220FEF7F3FC0020ADF80A00ADF8060041
:101F200040F2E730ADF808004720ADF8040001A901
:101F30007248FEF71FFE012211467048FFF791F923
:101F400001216E48FFF772F91D208DF80000012075
:101F50008DF803006846FEF752F91FBD08B5012150
:101F60000420FEF7CBFC0820ADF8000010208DF80F
:101F7000030001208DF8020069465F48FEF708FA69
:101F800008215D48FEF7B1FA08BD00B58DB001210A
:101F90000820FEF7B3FC01210846FEF7AFFC012143
:101FA0000420FEF7ABFC4FF4E070ADF830004820A1
:101FB0008DF8330001208DF832000CA94E48FEF751
:101FC000E7F90020ADF82A00ADF8260040F2E7302E
:101FD000ADF828004720ADF8240000208DF82C0033
:101FE00009A94748FEF7C6FD0020ADF818000320F8
:101FF000ADF81C000420ADF820000A20ADF81A004E
:102000000020ADF81E0006A93D48FFF746F87020F5
:10201000ADF808000020ADF810000120ADF80A006E
:10202000ADF80E0002A93648FEF723FE1E208DF8FB
:10203000040001208DF8070000208DF80500012024
:102040008DF8060001A8FEF7DAF801212C48FFF709
:1020500051FB40212A48FFF723F950212848FFF778
:102060005EFB04212648FFF763FB80212448FFF72D
:1020700068FB012204212248FFF7F3F804212048DD
:10208000FFF7AEFB012240211D48FFF7EAF840218F
:102090001B48FFF7A5FB012211461948FFF7E1F89D
:1020A00001211748FFF79CFB01211548FFF7BEF9F6
:1020B00001211348FFF7BAF80DB000BD10B5042197
:1020C0000F48FFF77CFB18B104210D48FFF788FB90
:1020D00040210B48FFF773FB18B140210848FFF778
:1020E0007FFB01210648FFF76AFB18B10121044874
:1020F000FFF776FB10BD000000080140000400401F
:102100000008004000BF704700BF6C4A128812F000
:10211000400FFAD0C2B2694B1B1D1A80704710B530
:1021200086B00446012144F20400FEF7E7FB4FF4B9
:102130000070ADF8140018208DF8170003208DF8FA
:10214000160005A95E48FEF723F94FF48060ADF84C
:10215000140004208DF8170005A95948FEF718F956
:1021600001940020ADF810000C20ADF80E00002006
:10217000ADF80C00ADF80A00ADF8080001A94F4811
:10218000FFF775FB25208DF8000001208DF8030076
:1021900003208DF801008DF802006846FEF72FF845
:1021A000012240F225514548FFF7F9FB0121434840
:1021B000FFF7E9FB06B010BD10B540F225513F48CE
:1021C000FFF7D2FC00283AD03C48FFF74DFCC4B2E0
:1021D0003C48008810F4004F31D13A48008810F490
:1021E000804F12D00A2C03D000203649088026E008
:1021F0003448008840F400403249088000200988B3
:10220000C1F30D01304A505419E00D2C06D12D4870
:10221000008840F480402B49088010E0294800885D
:10222000C0F30D0028490C5426480088401C25495D
:10223000088008460088FF2801DD0020088010BDC6
:1022400070B52048008810F4004F36D01E48007842
:1022500044281ED0452824D0482802D0542828D10C
:1022600003E01AA001F0EEFB23E01748401C03F046
:102270009BFC044603F094FD18490860084600687A
:1022800004F0A6FB044622460B4615A001F0DAFB3B
:102290000FE008210A48FEF728F914A001F0D2FB4C
:1022A00007E008210648FEF720F915A001F0CAFB57
:1022B00000BF00BF00200349088070BD0038014006
:1022C0000008014028000020D800002048656C6C00
:1022D0006F20576F726C64210D0A000030000020DF
:1022E0005258203D20252E34660D0A004D6F746F24
:1022F000722064697361626C65210D0A0000000040
:102300004D6F746F7220656E61626C65210D0A00FD
:102310002DE9F74F94B082468B46FE48007830B1E5
:10232000012807D0022803D003287CD101E000BF98
:1023300000BF00BF0021584604F0A6FC38D051462B
:10234000504604F071FD59460F90584604F06CFD5C
:102350000E900F9904F068FB109000F0E8FF1190C8
:10236000ED480168119804F0CDFB8146584604F011
:102370002FFBCDE90801504604F02AFBCDE9060108
:10238000DDE9082303F050FBCDE90C01169804F0B9
:102390001FFBCDE90A01DDE90C2303F033FDCDE994
:1023A0000E0103F0FDFC119000F091FF169016E075
:1023B000D9480168504604F0A5FB8146169804F000
:1023C00007FBD64AD64BCDE90C0103F01BFDCDE946
:1023D0000E0103F0E5FC119000F079FF16904846DD
:1023E00004F0F6FACF4AD04BCDE9100104F0C4F95D
:1023F00001D2DFF83893484604F0EAFAC94ACC4BD8
:10240000CDE9100103F0D6FF01D2DFF8289316982A
:1024100004F0DEFAC84AC94BCDE90C0103F0AEFD69
:102420000022C74B00E074E1CDE90E0103F0EAFCA5
:10243000CDE9100103F066FF0746484604F0C8FAEC
:10244000CDE90E01169804F0C3FACDE9040138462F
:1024500003F09CFFB84AB94BCDE9000103F0E6FF59
:10246000CDE90201DDE9042304F0C8F9CDE9060154
:1024700003F096FC089000F0CBFD099004F0A8FA58
:10248000B04AB14BCDE90A0103F0D0FFCDE90C0110
:10249000DDE90E2303F0CAFFCDE9100103F080FC53
:1024A0008046484604F094FACDE90E01781E03F008
:1024B0006DFFA14AA14BCDE9000103F0B7FFCDE9C3
:1024C0000401169804F084FACDE90201DDE9042341
:1024D00004F094F9CDE9060103F062FC089000F0E5
:1024E00097FD099004F074FA964A974BCDE90A01DA
:1024F00003F09CFFCDE90C01DDE90E2303F096FF0C
:10250000CDE9100103F04CFC129041464FF07E5093
:1025100004F092FD1190129904F08EFD1390072F94
:102520007ED2DFE807F0C60424446486A6004FF09C
:102530008041139804F0E6FA11904046129904F095
:1025400073FA1090119904F06FFA04464FF080412D
:10255000139804F0D7FA1190129904F065FA054621
:102560004FF08041139804F0CDFA0646A5E04FF0F5
:102570008041139804F0C6FA4146119004F054FAD1
:1025800004464FF08041139804F0BCFA1190404685
:10259000129904F049FA1090119904F045FA054691
:1025A0004FF08041139804F0ADFA064685E04FF0F5
:1025B0008041139804F0A6FA04464FF08041139826
:1025C00004F0A0FA11904046129904F02DFA1090F0
:1025D000119904F029FA05464FF08041139804F050
:1025E00091FA1190129904F01FFA064665E04FF037
:1025F0008041139804F086FA04464FF08041139806
:1026000004F080FA4146119004F00EFA05464FF0AE
:102610008041139804F076FA11904046129900E038
:1026200047E004F001FA1090119904F0FDF9064614
:1026300043E04FF08041139804F064FA119012992E
:1026400004F0F2F904464FF08041139804F05AFA6E
:1026500005464FF08041139804F054FA119040461B
:10266000129904F0E1F91090119904F0DDF9064691
:1026700023E04FF08041139804F044FA1190404653
:10268000129904F0D1F91090119904F0CDF9044693
:102690004FF08041139804F035FA05464FF0804121
:1026A000139804F02FFA4146119004F0BDF9064644
:1026B00003E000240025002600BF00BF2349204678
:1026C00004F0B2FB109004F02FFB80B20146119091
:1026D0004FF08040FFF742F81C49284604F0A4FB65
:1026E000109004F021FB80B2014611904FF0804021
:1026F000FFF736F81549304604F096FB109004F0C9
:1027000013FB80B2014611904FF08040FFF72AF88A
:1027100000BF1DE06700002080000020F4D6435475
:10272000FB21F93F105839B4C876E23F46B6133F53
:10273000C876E2BF46B613BF40AF2D3852C1F03F56
:102740000000F03F6B6058E87AB6FB3F0000B444ED
:1027500000BF17B0BDE8F08F2DE9FC5F06464FF0D3
:10276000E0208469FE480068844215D2FC4909686B
:10277000081B04F011FBFB49009004F0C3F9019021
:1027800004F026F98246F84AF84B03F04FFE07465C
:1027900003F006FB054617E06FF07F41091BF04A86
:1027A0001268881804F0F8FAEE49009004F0AAF9CB
:1027B000019004F00DF90746EB4AEC4B03F036FEAE
:1027C000824603F0EDFA0546E548046000212846FC
:1027D00004F05AFA08D0284604F0FAF80746002216
:1027E000E34B03F0C9FF00D2E24D2946E2480068FE
:1027F00004F01AFB019004F0EBF807468846DF4826
:102800000168304604F018FC019004F0E1F821F072
:10281000004182463A46434603F0AEFF2FD2D748E6
:102820000168304604F008FC0021019004F0C8FA69
:1028300002D24FF0FF300CE0D0480168304604F07F
:10284000FBFB0021019004F0BBFB01D2012000E062
:102850000020834604F088FA8246C7480168504643
:1028600004F0E2FA8046294604F0DEFA0746C3483F
:102870000168384604F0D8F8C049086001E0BF4854
:102880000660BF48D0F80090BE480168BB480068A9
:1028900000F042FD07463A4600214846FFF738FD62
:1028A0004846BDE8FC9F2DE9F14F82B04FF0E02093
:1028B0008469AB480068844215D2A9490968081B9D
:1028C00004F06AFAA749019004F01CF9834604F069
:1028D0007FF88146A44AA54B03F0A8FD064603F005
:1028E0005FFA054617E06FF07F41091B9C4A1268AA
:1028F000881804F051FA9B49019004F003F98346CB
:1029000004F066F80646984A984B03F08FFD81461E
:1029100003F046FA0546924804600021284604F078
:10292000B3F908D0284604F053F806460022904B2D
:1029300003F022FF00D28F4D2946029804F074FA6A
:1029400007468E480168384604F06EF8064600F0E7
:10295000BEFC8A4908608A48D0F80080894801682E
:102960008648006800F0D8FC064632460021404602
:10297000FFF7CEFC4046BDE8FE8F70B5044600F080
:1029800019FB814908608148007805285AD2DFE8A0
:1029900000F0030C23454F007D48007810B97D48B6
:1029A000446001E07C4804604CE07C480460764868
:1029B00001687A48006804F03FFB054600F029FDF5
:1029C000754908607248007828B90846006871495E
:1029D00048600020086035E071480460674801687D
:1029E0006F48006804F028FB054600F008FE6B49BC
:1029F0000860654801686948006804F01DFB0546E9
:102A000000F007FD644908606148007828B908466D
:102A10000068604948600020086013E05F48046077
:102A20000068FFF740FF5B4948600020086009E04C
:102A30005B4804600068FFF78FFE5649486000203D
:102A4000086000BF00BF70BD2DE9F04F87B055A0F2
:102A500000F0F8FF002421E0204603F080FC574AF4
:102A6000574BCDE9000103F0E1FC06460022554B2F
:102A700003F084FA544A554BCDE9020103F0C2F940
:102A8000814603F08DF98046424600215048006897
:102A9000FFF73EFC0220FFF7B3F9641CB4F5FA7FA0
:102AA000DADD00F075FE05904FF4FA7421E020465F
:102AB00003F055FC8146414A414B03F0B7FC00222C
:102AC000404BCDE9000103F059FA06463E4A3F4B20
:102AD00003F098F9CDE9020103F062F9804642461D
:102AE00000213B480068FFF713FC0220FFF788F93C
:102AF000641E002CDBDA00F04BFE0490002211462D
:102B00001046FFF705FCC820FFF77AF9059803F097
:102B10005FFF064632460B462EA000F093FF049856
:102B200003F056FF064632460B462FA000F08AFF00
:102B3000DDE9041004F080FA814603F049FF21F03A
:102B40000041064603F02CF90546DDE9041004F0C7
:102B50009BF859D0284603F03BFF0646274A4FE032
:102B600088000020000010418DEDB5A0F7C6B03EF2
:102B70000000E03F6F12833A7C0000203800002004
:102B8000740000205000002040000020660000205B
:102B90006500002054000020480000204400002070
:102BA0003C0000204D6F746F723A20416C69676E73
:102BB0002073656E736F722E0D0A0000EA2E445466
:102BC000FB21194000407F40320D337F7CD91240F9
:102BD000840000206D6964646C655F616E676C657C
:102BE0003D252E34660D0A00656E645F616E676C6C
:102BF000653D252E34660D0A000000007B14AE47AB
:102C00007F4B03F0D7FB0AD27EA000F01BFF082108
:102C10008848FDF76AFC002007B0BDE8F08FDDE9C9
:102C2000041004F0CDF807D283A000F00BFF4FF0A2
:102C3000FF308A4908600AE0DDE9041004F0C0F9B9
:102C400005D287A000F0FEFE0120844908608DA017
:102C500000F0F8FE9248006804F086F829460390D8
:102C600004F0E2F8834603F0B3FE06468D4A8E4B2D
:102C700003F0C4FD21F00041814600228B4B03F09C
:102C80007BFD1DD28AA000F0DDFE284603F0A0FEE9
:102C900081464A460B468348834903F06FF9002278
:102CA000824BCDE9020103F0ADF8064603F0FAFAD3
:102CB0007B4908600846016884A000F0C3FE02E07A
:102CC00084A000F0BFFE854A002185480068FFF718
:102CD0001FFB4FF42F70FFF793F800F059FD81466A
:102CE0005E48006804F040F88246494604F09CF8CB
:102CF00007466B480168384600F00EFB064600F0B8
:102D0000E6FA784908601420FFF77AF875480068F9
:102D100003F05EFE064632460B4673A000F092FEBC
:102D2000002211461046FFF7F3FAC820FFF768F8B3
:102D3000012071E710B575480078032803D0734867
:102D40000078042800D110BD00F044F970490860F3
:102D500000F014F96F4908606F48007820B101282D
:102D600003D0022803D101E005E004E003E06BA0FA
:102D700000F068FE00BF00BF714A11685068654AE4
:102D80001268FFF7C5FA00BFDDE710B56DA000F0CF
:102D900059FE704801685248006804F011F903D2E6
:102DA0006C4800684E49086006203D4908600020D4
:102DB0002A49086008211F48FDF795FB66A000F02E
:102DC00041FE10BD10B5FFF73FFE0520FFF718F8D4
:102DD00000F0F0F8674908600520FFF711F800F0EF
:102DE000F9F84B49086049480078022803D10846A1
:102DF000006861490860C820FFF702F810BD0000B4
:102E0000E17A943F4D6F746F723A204661696C6548
:102E10006420746F206E6F74696365206D6F7665D2
:102E20006D656E74206C6F6F703232322E200D0A19
:102E300000000000000801404D6F746F723A20736B
:102E4000656E736F725F646972656374696F6E201B
:102E50003D204343572E200D0A0000007000002043
:102E60004D6F746F723A2073656E736F725F646931
:102E700072656374696F6E203D2043572E200D0AE2
:102E8000000000004D6F746F723A20706F6C655FC8
:102E9000706169727320636865636B3A200000009B
:102EA00050000020EA2E4454FB2119400000E03F6E
:102EB0006661696C20746F20657374696D617465F7
:102EC00020706F6C655F70616972730025640D0A14
:102ED0002C0000004F4B21200D0A0000E4CB96404F
:102EE000840000206C0000204D6F746F723A205AED
:102EF00065726F20656C656374696320616E676CD1
:102F0000653A20252E34660D0A0000006600002078
:102F1000380000204C000020650000204D6F746FC9
:102F2000723A206E6F20746F7271756520636F6ED8
:102F300074726F6C6C2073656C65637465642E00CD
:102F4000540000204D6F746F723A20496E69740D01
:102F50000A000000740000204D6F746F723A206503
:102F60006E61626C65206472697665722E200D0A4E
:102F70000000000040000020300000202DE9F0415A
:102F80001E48006803F0F0FE06461D4801681D4813
:102F9000006803F049FD0746314603F045FF05464A
:102FA00019480168284604F047F8044600F08FF9F4
:102FB000BDE8F08170B500F04FFC064600F0E2F984
:102FC00004461248006803F0CFFE0546214603F090
:102FD0002BFF70BD70B500F0DBFB05460B480068A9
:102FE00003F0C2FE0646294603F01EFF04460448CD
:102FF0000168204604F020F870BD00005000002059
:1030000034000020380000206C00002070000020F8
:103010002DE9FF5F8346584603F0DAFC0446CA4AAE
:10302000CA4B03F0C7F944D2584603F0D1FCC84A52
:10303000C84BCDE9020103F0F9F98046002213469E
:1030400003F09AFB12D8584603F0C2FC8046C04AEF
:10305000C04B03F0EBF90022BF4BCDE9000102F0B9
:10306000D1FECDE9020103F01DF911E0584603F04D
:10307000AFFCB74AB74BCDE9000103F0D7F9002206
:10308000B54BCDE9020103F0B9FB804603F00AF924
:10309000B24951F820A0504603F061F90646B04A03
:1030A000B04B03F0C3F9044602F07AFE04B0BDE869
:1030B000F09F584603F08CFC0446AB4AAB4B03F040
:1030C00079F944D2584603F083FCA14AA14BCDE9DB
:1030D000020103F0ABF980460022134603F04CFBDB
:1030E00012D8584603F074FC994A9A4BCDE9000176
:1030F00003F09CF90022984BCDE9020102F082FE18
:10310000804603F0CFF811E0584603F061FC904A86
:10311000904BCDE9000103F089F900228E4BCDE9F7
:10312000020103F06BFB804603F0BCF8C0F5C770EA
:103130008A4951F820A0504603F011F90646884A02
:10314000884B03F073F9044602F02AFEAEE75846B6
:1031500003F03EFC0446864A864B03F02BF944D22A
:10316000584603F035FC7A4A7A4BCDE9020103F068
:103170005DF980460022134603F0FEFA12D8584645
:1031800003F026FC724A734BCDE9000103F04EF9BF
:1031900080460022704B02F035FECDE9020103F0BB
:1031A00081F811E0584603F013FC694A694BCDE9F8
:1031B000000103F03BF980460022674B03F01EFB41
:1031C000CDE9020103F06EF8A0F5C770634951F82C
:1031D00020A0504603F0C3F80646614A664B03F050
:1031E00025F9044602F0DCFD60E7584603F0F0FBE9
:1031F0008046574A574B03F019F900221346CDE990
:10320000020103F0B9FA12D8584603F0E1FB504A24
:10321000504BCDE9000103F009F9804600224E4BE6
:1032200002F0F0FDCDE9020103F03CF811E0584650
:1032300003F0CEFB8046464A464B03F0F7F80022E7
:10324000454BCDE9000103F0D9FACDE9020103F0C5
:1032500029F8C0F54770414951F820A0504603F0C5
:103260007EF806463E4A444B03F0E0F8044602F07E
:1032700097FD1BE72DE9F0470646304603F0A8FB13
:103280000746314A314B02F0BDFD044602F088FD8D
:103290008146484603F09CFB0746334A374B03F010
:1032A0006BFA08D2484603F093FB07462E4A334B8D
:1032B00003F0A4FA02E0484603F08AFB044602F059
:1032C0006FFD81464846FFF7A3FEBDE8F0872DE974
:1032D000F0470646304603F07BFB0746224A274B61
:1032E00002F078FC044602F05BFD8146002148466E
:1032F00003F066FE03D8484603F06AFB07E0484641
:1033000003F066FB0746184A1C4B02F07BFD04469F
:1033100002F046FDBDE8F08770B504460D4628462C
:1033200003F022FD0646214603F07EFD70BD70B518
:10333000044626461248A0EB65052E463146204637
:1033400003F072FD70BD0000F4D64354FB21F93F39
:103350009CA223B9FCAB5F400000E03F2472000850
:103360002D431CEBE2361A3FEA2E4454FB21094060
:10337000320D337F7CD91240E2361ABFFB2119404F
:10338000865A375F2DE9F04104460D4801684FF039
:103390007E5003F051FE8046214603F045FD06466F
:1033A000084801680648006803F03EFD07463146BC
:1033B00003F03AFB0546034805602846BDE8F08166
:1033C000900000208C000020D048D1490860800780
:1033D000D0490860D048D14908600020D049086031
:1033E000D0490860D04908604FF0E0208069CF499B
:1033F0000860CF48CF4908604FF07C50CE49086044
:103400000020CE4908604FF0E0208069CC49086078
:1034100070472DE9F04F8DB083464FF0E02084696E
:10342000C2480068844217D2C0490968081B03F0EB
:10343000B3FC8046C34903F065FB074603F0C8FAB6
:10344000C14AC24BCDE9080102F0F0FFCDE90A0103
:1034500002F0A6FC054618E06FF07F41091BB34A55
:103460001268881803F098FCB649089003F04AFBEC
:10347000099003F0ADFAB44AB44BCDE90A0102F069
:10348000D5FF074602F08CFC0546A84804600021E1
:10349000284603F0F9FB08D0284603F099FA0746BE
:1034A0000022AB4B03F068F900D2AA4D984801689E
:1034B000584603F0B9FC0C909A480168584603F04E
:1034C000B3FA074603F084FACDE90401294691488E
:1034D000006803F0A9FC019003F07AFA0746002285
:1034E0009B4B02F0A3FFCDE90201DDE9042302F0CA
:1034F0009DFFCDE908018A48006803F069FACDE92B
:103500000601DDE9082302F07DFCCDE90A0102F0A5
:1035100047FC06469048006880F000473146384630
:1035200003F04EFD04D28C48006880F0004009E0B2
:1035300089480168304603F043FD02D2864800689E
:1035400000E03046064631460C9803F06DFA81469D
:103550008148006880F000474946384603F030FD56
:1035600004D27D48006880F0004009E07A48016894
:10357000484603F025FD02D27748006800E048463F
:10358000814669480168484603F056FD07462946CA
:1035900003F0B8FA824661480168504603F010FD16
:1035A0000CD229465D48006803F03EFC07465E48A1
:1035B0000168384603F038FA814614E0574800683D
:1035C00080F000475146384603F0FAFC0BD22946FA
:1035D0005248006803F028FC074653480168384603
:1035E00003F01FFD81464E4806604F48C0F800902A
:1035F0004C48C0F800B048460DB0BDE8F08F2DE94A
:10360000F04F85B081464FF0E02084694C48006857
:10361000844216D24A490968081B03F0BDFB494998
:10362000019003F06FFA834603F0D2F9464A474B04
:10363000CDE9020102F0FAFE074602F0B1FB0546B1
:1036400018E06FF07F41091B3D4A1268881803F0AB
:10365000A3FB3C49019003F055FA834603F0B8F907
:10366000394A3A4BCDE9020102F0E0FE074602F08A
:1036700097FB0546324804600021284603F004FB0E
:1036800008D0284603F0A4F907460022304B03F087
:1036900073F800D22F4D27480168484603F0C4FB59
:1036A000049026480168484603F0C6FC804622483C
:1036B0000168404603F0B8FB0746294603F022FAAA
:1036C00082465146049803F0AFF906462248006846
:1036D00080F000473146384603F072FC04D21E48A1
:1036E000006880F0004009E01B480168304603F0A4
:1036F00067FC02D21848006800E0304606460F48D2
:10370000C0F80090304605B0BDE8F08FCDCCCC3D80
:1037100094000020980000200000C8429C00002077
:10372000A0000020A4000020A8000020AC00002081
:1037300000002041B0000020B4000020B8000020AC
:10374000BC000020000010418DEDB5A0F7C6B03ED2
:103750000000E03F6F12833A7400002070B5044609
:103760000D46164640216948FCF7A3FE0446802119
:103770006648FCF79EFE05464FF480716348FCF7EF
:1037800098FE06460020624908606249086070BDE4
:103790002DE9F04F85B06048006803F0E5FA044673
:1037A000049903F03EFC82465C48006802F0D7FDB5
:1037B00006465B4A5B4B02F039FE8046894650461E
:1037C00003F006F921F00041044642464B4602F060
:1037D000D3FF19D20021504603F0F2FB02D2524827
:1037E000524901E05048524980468946484800689D
:1037F00003F0EEF8064642464B4602F003FB044651
:1038000002F0CEFA42490860049803F071FA424986
:1038100008604248006803F0A7FA01460190049846
:1038200003F070F9834603F0D3F83F4A404BCDE9EB
:10383000020102F0FBFD04460D463548006803F026
:10384000C7F8064622462B4602F0DCFA804602F014
:10385000A7FA05B0BDE8F08F2DE9FC5F4FF0E0203E
:1038600084692C480068844215D22A490968081BDB
:1038700003F092FA2F49009003F044F9019003F00D
:10388000A7F882462C4A2D4B02F0D0FD074602F0E5
:1038900087FA054617E06FF07F41091B1D4A126841
:1038A000881803F079FA2349009003F02BF901906E
:1038B00003F08EF80746204A204B02F0B7FD8246FF
:1038C00002F06EFA05460021284603F0DDF908D023
:1038D000284603F07DF807460022194B02F04CFF02
:1038E00000D2184DFFF754FF0646174801683046CE
:1038F00003F0A2FB0746294603F004F9814612486B
:103900000660044804604846BDE8FC9F000C014086
:10391000C4000020CC000020C8000020C00000200F
:103920009A9999999999E93FEA2E4454FB2119C033
:10393000FB211940000010418DEDB5A0F7C6B03E47
:103940000000E03F6F12833AD00000204FF4E130D6
:10395000FEF7E5FBFEF77CFAFEF7D8FAFEF7FEFA73
:10396000FEF713FB4FF47A70FEF74AFA4FF08240ED
:10397000154908604FF07E501449086014481549F5
:1039800008600220144908700620144908600821C4
:103990001348FCF7A8FD002012490860FFF7F5F96D
:1039A000FFF710FAFFF710FD0FA000F04BF8FEF73D
:1039B00044FA07E00B480068FEF7DFFFFFF7BAF9AB
:1039C000FEF73EFCF6E700008000002074000020B7
:1039D0000000A0417C000020660000205000002074
:1039E00000080140300000204D6F746F7220697331
:1039F0002072656164792E200D0A0000704700BFB7
:103A0000FEE700BFFEE700BFFEE700BFFEE770472E
:103A100070477047704710B501210748FDF7CFFE8A
:103A2000012804D105480068401C044908600121B0
:103A30000148FDF7D5FE10BD00080040D40000206D
:103A4000704700000FB4044910B503AA029800F0B3
:103A500043FB10BC5DF814FB2C0000202DE9F04165
:103A60000646002410687529314616A511D0AFF31B
:103A70000080002803DAC0F1000013A507E03168D8
:103A80008A0701D511A502E0490704D510A5012434
:103A900001E0AFF3008000210A2306F1240707E0CC
:103AA000B0FBF3F203FB1200303078541046491C8F
:103AB0000028F5D123462A463046BDE8F04100F003
:103AC0009FB80000000000002D0000002B00000047
:103AD000200000002DE9F0474FF0000A8946044617
:103AE000C0F820A02046E1688847002876D0252825
:103AF00006D0D4E901219047206A401C2062F1E7FA
:103B0000E168204600258847C4F81CA00646002727
:103B1000C4F818A02A2E09D0304601F06CFE38B344
:103B200004EB8708303EC8F8186019E059F8041B08
:103B3000204604EB87029161E1688847012F064621
:103B400018D1E069002820DA25F020051DE0D8F81A
:103B5000180000EB800006EB40003038C8F8180071
:103B60002046E1688847064601F045FE0028EED170
:103B7000012F0AD02E2E08D12046E16888477F1CED
:103B80000646022F45F02005C4DBA069002803DAB1
:103B9000404245F00105A061E80701D025F010057D
:103BA000B6B1A6F14100192802D8203645F40065C7
:103BB0004A463146204625604D46FCF7D1FA58B1B9
:103BC000012806D0ED1D25F0070000F1080989E75E
:103BD00004E005F1040985E730468AE7206ABDE87C
:103BE000F087704770477047704710B500F0DAFAF9
:103BF000006810BD10B5044600F0D4FA046010BD92
:103C00002DE9F0470D4699469246044600F12408F6
:103C10000168880604D5E06921F01001216000E008
:103C20000120A84202DDA0EB050700E00027A16902
:103C300007EB050202EB0900A1EB0000A061207870
:103C4000C00602D42046AFF30080002608E0D4E985
:103C500001211AF806009047206A401C761C206259
:103C60004E45F4DB2078C0060AD52046AFF300802D
:103C700006E0D4E9012130209047206A401C2062F0
:103C8000381EA7F10107F4DC07E0D4E9012118F898
:103C900005009047206A401C2062281EA5F10105FE
:103CA000F3DC2046AFF300802078000602D5022026
:103CB000BDE8F0870120FBE770472DE9FF4F0C4678
:103CC0001E464FF0FF378BB0D2E90001DDF860806F
:103CD0000A908A46C1F30A5505B93D4600210846B7
:103CE0004FF00000BAF1000F00F4400005DA00EBDD
:103CF00080004FF4400101EA50004FEA9059B9F1B9
:103D0000010F00DDB9460A9850EA4A000ED044F689
:103D10001050A5F2FF3545432F14B8F1000F1ED007
:103D20007542291E1EDDC9F100021CE0B8F1010F29
:103D30004FF0000001D0302103E0F24305E02154B0
:103D4000401CB042FBDB30460022002121540B997D
:103D5000C1F80880C1E900200FB0BDE8F08FBD1B9D
:103D60006D1CDEE74A4600DA694206A800F0E4FA74
:103D700006AB07CB03AB07C350460A9901F065F8C1
:103D80008DE80700A0F500501F3800900398002D23
:103D900009DD42F21F014A46084403A90390684620
:103DA00001F0EFFA08E0A0F500504A461F3803A9D9
:103DB0000390684601F00DFB8DE807000004000C3D
:103DC00003D04FF0FF30410800E01046B8F1000F7B
:103DD00003D00022009215461FE0751E06D400F0A5
:103DE000E5F902F1300262556D1EF8D5B3460122A5
:103DF000084302D000227F1C04E02078302801D143
:103E000000227F1E002A099787D01DE0112D07DAB6
:103E100000F0CCF9303262556D1C50EA0102F5D148
:103E200008430FD10021681E05E0235C625C6354E7
:103E3000491C2254401E8142F7DBAB46A81B401EA2
:103E4000099001E0009848B1002004F80B000B989D
:103E5000099AC0F80880C0E9002B7DE711264FF0D1
:103E600000085AE72DE9F04F88460446D21D22F09B
:103E7000070191B0D1E90001CDE90A0101F0F3FB9E
:103E800002460B98C00F01D02D2007E02068810763
:103E900001D52B2002E0202101EAC000032A09906D
:103EA00001D0072A05DB03464146204600F0E4F92D
:103EB0000FE12078800601D5E06900E00620B8F126
:103EC000650F814606D0B8F1660F18D0B8F1670FBC
:103ED00072D132E00020B9F1110F009001DB112303
:103EE00001E009F101030AAA01A90CA8FFF7E5FE08
:103EF000DDE90C70002609F10105834648E0012048
:103F00004B4600904FF000470AAA01A90CA8FFF702
:103F1000D4FEDDE90DB00C995D46002618B909F113
:103F2000010001EB0005B9EB050003D4C0F1FF3639
:103F300009F10105A5EB09002BE0B9F1010F01DA48
:103F40004FF001090020B9F1110F0090484601DD42
:103F5000112300E003460AAA01A90CA8FFF7ADFE51
:103F6000DDE90C704D4600268346207800070AD410
:103F7000AB4500DA5D4601A8012D04DD411911F8B9
:103F8000011C302907D04F4502DA17F1040F04DA7B
:103F90000120824610E06D1EEEE7002F02DCED1BD3
:103FA0003E4403E0781CA84200DD0546A7EB06006E
:103FB00000F1010A4FF000472078000703D4AA451A
:103FC00001DB4FF0FF3A0021B7F1004F0DF143083C
:103FD0008DF8431023D002202B23002F01DA7F42DB
:103FE0002D234FF00A0C011EA0F1010000DC4FB19F
:103FF00097FBFCF10CFB11720F4602F1300208F83E
:10400000012DF0E7A8F1010003702188090501D511
:10401000452100E06521A0F1010800F8011C099884
:104020000FA9A1EB080707F1070700B1012000EB7A
:10403000050101EBEA70A1693844A1EB0000A0F191
:104040000100A0612078C00602D42046AFF30080B2
:10405000099830B1D4E901219047206A00F10100AC
:1040600020622078C00620D52046AFF300801CE0F7
:10407000002E04DBB34502DD01A8805D00E03020A6
:10408000D4E901219047206A761C401CBAF1010A4C
:1040900020620AD100F082F8C0680168405CD4E96F
:1040A00001219047206A401C2062281EA5F10105CD
:1040B000DEDC07E0D4E9012118F8010B9047206A03
:1040C000401C2062381EA7F10107F3DC2046AFF345
:1040D0000080022011B040E6074B70B50D467B44CE
:1040E00000F0B7F80446284600F098F910B14FF0F8
:1040F000FF3070BD204670BD27E0FFFF0FB40023E6
:1041000000B589B00CA900910B99CB60204B7B4482
:104110000693204B7B44079304236FF00042CDE9C4
:1041200001321D4A7A446B4608920246002003F091
:104130005AF809B05DF814FB70B506464FF0FF3031
:1041400015460C46324686B00091CDE9010169461C
:104150000020049004A8FFF7D1FF0346049821181B
:1041600025B108B10A4600E022462A6000280DD099
:10417000002B02DD0098884208D03246081B6946B1
:104180000094CDE9010404A8FFF7B8FF06B070BDA4
:10419000E7010000FF0100000F0100000048704728
:1041A000F801002000487047D801002030B5B0F178
:1041B0000A024FEA900E71F100034EEA817EB0EBE5
:1041C0000E0061EB91014FEA101E4EEA017E10EBEA
:1041D0000E0041EB11114FEA102E4EEA016E10EB6A
:1041E0000E0041EB11214FEA104E4EEA014E10EB4A
:1041F0000E0041EB1141401841F100014FEAD0009F
:1042000040EA41704FEAD10110EB80054FEA81048A
:1042100044EA907444EB01046D1944EB0404521B0E
:10422000A3414FF0000348BF0A3200D530BD401C07
:1042300041F1000130BD10B5044600F01DF90068E1
:10424000005D00F0010010BD01694A1C02610878A0
:10425000704700B58FB0CDE90131002105910549C6
:104260007944CDE9031011466846FFF733FC0FB0DF
:1042700000BD0000E5FFFFFF2DE9F0411F460446A9
:1042800003260168072A01F4006004DB08B116A5C3
:1042900005E016A503E008B115A500E015A521F07D
:1042A00010002060A069C01EA0610FB1401EA06177
:1042B0002046AFF300804FB1D4E901213846904742
:1042C000206A401C2062C01C206206E0206AFAE7D7
:1042D000D4E9012115F8010B9047761EF8D220464B
:1042E000AFF30080BDE8F0814E414E006E616E007C
:1042F000494E4600696E6600426842B1016811F895
:10430000013B23B1521EC0E900121846704701213B
:10431000C160881E704742685AB1C368016843B9DA
:1043200083688B4205D0491E521CC0E90012002050
:1043300070474FF0FF3070472DE9F0478146164631
:104340008AB035487844D0E9002380680092CDE9EE
:104350000130314878440C38D0E9022300690392D7
:104360004FF03702CDE9043041F69B30014491FB18
:10437000F2F0A0F1800502FB10141B3C02D5644250
:10438000012000E00020DFF890A080460027FA44DA
:10439000AAF1C60A0DE0E00709D03246684607EBED
:1043A00047010AEB810101F014F88DE80700641061
:1043B0007F1C002CEFD1184F7F44B43F17E0E80773
:1043C00013D007EB04100DF1180A90E80E00AAE8CC
:1043D0000E00C068F04201D198190890324606A933
:1043E00003A800F0F6FF03AB07C36D10641C002D9B
:1043F000E5D132466946B8F1000F03A802D000F0BB
:10440000C0FF01E000F0E5FFC9E90001C9F808209C
:104410000AB0BDE8F08700001C330000007B00F00C
:104420008000704700487047D80100207546FFF7AC
:10443000F9FFAE4605006946534620F00700854661
:1044400018B020B5FBF7C4FEBDE820404FF00006D1
:104450004FF000074FF000084FF0000B21F007016C
:10446000AC46ACE8C009ACE8C009ACE8C009ACE8AF
:10447000C0098D467047000010B5FFF78FFE001D84
:1044800010BD00BFF11800002DE9FF4F064689B0AE
:104490000878FF2806D0491C2D2805D000244FF0AD
:1044A000000908E000200CE00124F8E709EB89038B
:1044B000491C00EB43090878FF28F7D114B1C9F172
:1044C00000008146107800252C46AA4629462D2852
:1044D00001D02B2804D1521C2D2813D00020824655
:1044E0008B461078FF280FD04FF0000C0A21521C89
:1044F000A5FB017804FB018105FB0C11C5194BEBF1
:104500000104EEE70120EAE7002108464FF0000031
:10451000BAF1000F02D000EB80004008C0F38158D0
:10452000B8F1010F01DD4FF0FF380C9809EB0007DF
:1045300055EA040006D14FEACA70C6E900B00DB0D2
:10454000BDE8F08F17F5FA7F4FF0020904DA4FEA61
:10455000CA70C6E900B00BE0B7F5FA7F0DDDF04890
:104560007844D0E90010C6E9001040EACA707060D3
:10457000FFF718FEC0F80090E1E7391E02DAC8F133
:10458000000200E0424600DA794206A8FFF7D4FEB6
:1045900006AB07CB03AB07C344F23E005BEA040162
:1045A0000090584604D144F21E012C465D4600910D
:1045B000210C0904014306D10099240444EA15445E
:1045C0002D041039009104F07F41014306D1009978
:1045D000240244EA15642D020839009104F0704168
:1045E000014306D10099240144EA15742D01091FE5
:1045F000009104F04041014306D10099A40044EA2F
:104600009574AD00891E009104F00041084304D167
:1046100000986D196441401E009042466846002F84
:10462000CDE9014503A902DD00F0E7FE01E000F05D
:10463000BCFEBAF1000F04460D4601D084F00044E0
:1046400040F2FF7724F00040284303D0C4F30A501F
:10465000B84212D1FFF7A6FDC0F80090C4F30A508B
:10466000B8420AD1AF487844D0E90010C6E900103A
:1046700004F000410843706061E7C6E900545EE75A
:104680002DE9FF4F1F464FF0000A4FF0FF38454617
:1046900091B0D7E90146CDF83CA0FFF77FFDC06897
:1046A0000168405C1090B96912986D1C8847396A9E
:1046B000814688470028F6D119F101000AD0002E62
:1046C00024F4D06412DDB9F12B0F08D0B9F12D0F0D
:1046D0000CD102E0404615B032E744F48064B96979
:1046E00012986D1C88478146A6F10106600504A951
:1046F00001D52D2000E02B20002E01F1010B0DF142
:1047000030088DF810003FDDB9F1690F08D0B9F11C
:10471000490F05D0B9F16E0F02D0B9F14E0F1CD17F
:104720003B4601A80095A0E85002DDE912126FF0A7
:10473000020002F05CFDC11CCDD10EE0B9691298F7
:104740006D1C884781461398761E44F400740560FA
:104750000F98401C002E0F9016DDB9F1300FEDD0F0
:10476000B9F1780F02D0B9F1580F0DD10F98012887
:104770000AD13B46CDE90054DDE91212001F029632
:1047800002F033FDC11CA6D1109989453ED144F0F9
:10479000800406E01399681CAAF1010A44F400742D
:1047A0000860B969761E12986D1C884730288146CA
:1047B000F0D02BE01099894505D1200603D4761E50
:1047C00044F0800418E0484601F015F808B3761E5E
:1047D0000DF123018B4544F4007408D2A9F1300097
:1047E0000BF8010B200607D5AAF1010003E0200613
:1047F00002D40AF101008246A00502D51399681C73
:104800000860B96912986D1C88478146002ED1DC7A
:1048100054E0002E52DDB9F1650F02D0B9F1450F19
:104820004CD1A0054AD5B969761E12986D1C24F4A6
:1048300040748847002E81460DDD2B2804D0B9F145
:104840002D0F08D144F48074B96912986D1C884703
:104850008146A6F10106E00501D52D2100E02B21BE
:1048600008F8011BCDF8008021E0761E0DF139011A
:10487000884544F400740CD2A9F1300010F0FF0018
:1048800088F8000002D10099884509D908F101088B
:1048900006E0E00501D5244801E042F20F708246AF
:1048A000B96912986D1C8847814613980560002EDF
:1048B00004DD484600F09FFF0028D6D1F969129820
:1048C0008847FF2053468BF8000088F8000000203E
:1048D0000A900B9004AA0CA90AA8FFF7D5FDA00521
:1048E00002D46FF00100F6E614F0240F0AD0E007BE
:1048F00014D13868DDE90A12031D3B600068C0E985
:1049000000120BE00AA9684600F01EFFE00705D17F
:104910003868009A011D3960006802602846DAE6AE
:104920003831000032300000F1D8FFFF0446AFF309
:1049300000802046FBF737FC4FF0013C50F8042B79
:1049400051F8043B9A4221D1A2EB0C03934313EAA2
:10495000CC1317D150F8042B51F8043B9A4215D1CF
:10496000A2EB0C03934313EACC130BD150F8042BA6
:1049700051F8043B9A4209D1A2EB0C03934313EA8A
:10498000CC13DBD04FF00000704700BFD01A01BA43
:10499000B1FA81F101F0180122FA01F0CB40C1F126
:1049A0002001DBB2C0B2C01A2CFA01F3D11A914334
:1049B00011EAC311E6D170472DE9FF4F1F464FF0B2
:1049C0003C0987B04FF00042DDE9141001F1010805
:1049D000DDF858A002EA405003900020049083467E
:1049E000054604460590B969461E08988847AAF10D
:1049F000010A0290BAF1000F37DD02982E2815D077
:104A0000102100F014FA00282ADB4FF0010B049962
:104A1000014316D0B9F1000F0BDB4A46C11700F075
:104A2000F3F905430C43A9F1040905E001200590C1
:104A300007E008B145F0010501200490059800B990
:104A4000361DB969089808F101088847BBF1000FC5
:104A5000AAF1010A0290CDD00999C1F80080C9E7F6
:104A60000298702808D0502806D0F969089888471D
:104A7000BBF1000F14D04FE0002002900120BBF1E9
:104A8000000F049009D0B969089808F10108884717
:104A9000AAF10109B9F1000F07DCF9690898884704
:104AA0006FF001000BB0BDE8F08F2B2804D02D284B
:104AB0000CD14FF0FF300490B969089808F1010853
:104AC0008847A9F10109B9F1000FE6DD411CE4D0E6
:104AD0000A2100F0ACF90028DFDB029908F1010897
:104AE00001EB810100EB41000290B9690898884709
:104AF0000A2100F09CF9099AA9F10109B9F1000F06
:104B0000C2F8008001DD0028E7DAF96908988847D3
:104B10000499029800FB016655EA040001D103984C
:104B20009CE004F04041090004D1A40044EA9574DB
:104B3000AD00B61E04F00041080002D16D196441B9
:104B4000761E159810F0240F03D04FF00B095C4827
:104B500003E04FF028096FF07D008246564507DAE2
:104B6000AAEB06018944B9F1410F01DD4FF041097B
:104B700001200021A9F1010200F046F90246284077
:104B80000B462140084301D0012100E00021501EC6
:104B9000029143F1FF3128402140084301D0012018
:104BA00000E000200299834651EA0B014FD000211A
:104BB00008464FF00000039900F4400039B100EBC3
:104BC00080004FF4400100EBD07001EA60008015D6
:104BD000012802DD4FF0FF3000E013D0401C36D03A
:104BE000029860B3BBF1000F0CD14A4601200021AE
:104BF00000F00AF928402140084301D0012000E0DC
:104C00000020E0B101204A46002100F0FDF80346F3
:104C100040190A4661412D1A8C4111D3B9F1400F58
:104C200009DD159810F0240F02D0AAF1340603E034
:104C3000AAF1170600E0761C00254FF0004406E0BC
:104C40005B1E42F1FF3220EA030521EA0204CAF1A9
:104C50000100B04206DA1B49039808430190002086
:104C600000900EE0039AC4F3D321E80A0A431649E0
:104C700040EA44500A433146CDE90002684600F05C
:104C8000AFFD159810F0240F0BD01598C00715D163
:104C90003868DDE90012031D3B600068C0E90012BE
:104CA0000CE002A8694600F04FFD1598C00705D139
:104CB0003868029A011D3960006802604046F1E6DA
:104CC00002FCFFFF0000F07F0000F03F2DE9FF4FE6
:104CD00092461D4685B04FF00041DDE9124BDDE9FB
:104CE00014727F1E01EA4B50434940F0FF4940EAED
:104CF0000108002122F020004928049102D04E280A
:104D00002BD04FE03DA00126D0E900128068009131
:104D1000CDE90120A9690698641C88477F1E0146D9
:104D200006D41DF8060018B121F0200181420BD0F5
:104D3000E96906988847032E34D0082E32D06FF0E8
:104D4000010009B0BDE8F08F761C032E01D0082EBB
:104D5000E0D1601CCAF80000DCE7A9690698641C71
:104D600088477F1E2AD420F02000412826D1A96937
:104D70000698641C88477F1E20D420F020004E280F
:104D80001CD1A9690698641C88477F1E48F4002836
:104D900049F48009CAF8004001D4282806D0E969FE
:104DA000069888475FEACB7012D022E0A96906987E
:104DB000641C88477F1E01D4002803DAE96906983D
:104DC0008847BCE72928F1D1641CCAF80040E9E70C
:104DD0001BF0240F07D028680499031D2B6000687E
:104DE000C0E9001805E02868021D2A600068C0F8C4
:104DF00000902046A5E700000000F07F494E46499C
:104E00004E49545900000000B2F120030AD5C2F106
:104E1000200301FA02F120FA03F300FA02F041EA5A
:104E20000301704700FA03F14FF0000070473A2881
:104E300000D2303820F02002412A01D3A2F13700FD
:104E4000884201D34FF0FF3070475FEA400C08BF43
:104E500091F0000F4FEA8C234FEAC12243EA5151EF
:104E60004FEA1C5018BF00F5F0404FEA300018BF61
:104E700041F000415FEA6C5C00F02980BCF1FF3F2B
:104E800008BF40F080407047130C06BF12044FF07B
:104E9000100C4FF0000C130E04BF12020CF1080CA2
:104EA000130F04BF12010CF1040C930F04BF920006
:104EB0000CF1020CD30F04BF52000CF1010C11468F
:104EC0004FF00002A0F11F00A0EB0C00704711F0A2
:104ED000004F08BF704731F000413FF4D5AF0B0CD5
:104EE00006BF09044FF0100C4FF0000C0B0E04BF6E
:104EF00009020CF1080C0B0F04BF09010CF1040CA2
:104F00008B0F04BF89000CF1020CCB0F04BF4900CA
:104F10000CF1010CCCF12003A0EB0C0022FA03F3FE
:104F200002FA0CF241EA030100F10100704720F09F
:104F30007F4C80EA030023F07F47ACEB070303F5C7
:104F40007C5300F0004003F1FF032DE980494FEA54
:104F5000154B09B44FEA144325EA0B4E24EA0348E3
:104F60000FF2042606EB132749083E785FEA320267
:104F700003FB0667C7F5000707FB06F64FEA543741
:104F80004FEAD64606F1020607FB066CCCF1005C40
:104F90004FEA1C472CEA074C07FB06F40CFB06F50E
:104FA00004EB15464FEA961634BF00204FF0004040
:104FB0004FEAD13706FB07FC4FEA1C4C0CFB0BF702
:104FC000D21B03FB0CF761EB07010CFB0EF7B0EBF8
:104FD000074072EB17420CFB08F734BFA2EB074205
:104FE000B2EB074261EB17414FEA0C444FEA9107DD
:104FF00006FB07FC4FEA1C4C0CFB0BF7B0EBC74061
:1050000072EB573203FB0CF734BFA2EBC742B2EB93
:10501000C74261EB57310CFB0EF7B0EBC70072EBE8
:1050200057720CFB08F734BFA2EBC702B2EBC70202
:1050300061EB5771039F4FEA816141EA921104EBE2
:10504000CC044FEAD1374FEA826206FB07FC42EA02
:1050500090124FEA80604FEA1C4C0CFB0BF7D21BFE
:1050600003FB0CF761EB07010CFB0EF7B0EB0740FD
:1050700072EB17420CFB08F734BFA2EB0742B2EB0E
:10508000074261EB17414FEA8C554FEA910704EB59
:105090009C2406FB07FC4FEA1C4C0CFB0BF7B0EB07
:1050A000C74072EB573203FB0CF734BFA2EBC74289
:1050B000B2EBC74261EB57310CFB0EF7B0EBC70008
:1050C00072EB57720CFB08F734BFA2EBC702B2EBCE
:1050D000C70261EB577115EB4C254FEA816141EA3C
:1050E00092114FEA82624FEAD13742EA901206FBF0
:1050F00007FC44F100044FEA80604FEA1C4C0CFBB3
:105100000BF7D21B03FB0CF761EB07010CFB0EF74F
:10511000B0EB074072EB17420CFB08F734BFA2EB71
:105120000742B2EB074261EB174115EB1C154FEA42
:10513000813141EA92414FEA823242EA90424FEA9B
:1051400080304FEA0C7644F1000448EA03434EEA0B
:105150000B484FF0000EB2EB080C71EB030724BFB5
:10516000624639464EEB0E0E4FF0000B00185241CE
:1051700049414BEB0B0BB2EB080C71EB03077BF1D6
:10518000000B24BF624639464EEB0E0E4FF0000B6B
:105190000018524149414BEB0B0BB2EB080C71EB81
:1051A00003077BF1000B24BF624639464EEB0E0E1F
:1051B00051EA020718BF46F0010616EB0E7655F1CC
:1051C000000254F1000103D5BDE88901BDE8008863
:1051D000BDE88901BDE80048B619524141EB010123
:1051E000A3F10103704780807F7E7D7C7B7A797894
:1051F000777676757473727171706F6E6E6D6C6C9C
:105200006B6A6A696868676666656464636362613D
:105210006160605F5F5E5E5D5D5C5C5B5B5A5A59BE
:10522000595858575756565555555454535352522A
:105230005251515050504F4F4F4E4E4D4D4D4C4C82
:105240004C4B4B4B4A4A4A494949484848474747CB
:105250004746464645454544444444434343434208
:10526000424242414141000046EA0646A3F57053DE
:105270004FEA164646EA42564FEAD22242EA4152E5
:1052800010B54FEAD121A3F1010300F017F820F087
:10529000004000F1010C00F0004701EB0050114606
:1052A000BCF5006F40EA070000D210BD02484FF085
:1052B000000140EA070010BD0000F07F002B26D45B
:1052C000770021D01CB54FEA370703B44FF0100028
:1052D0004FF010014FF000000FBCBDE810400BF183
:1052E000010BBBF1010F08BF5FEA170722BF12F1E4
:1052F000010211F101014FF0004143F1000300F000
:10530000004043EA00007047F9D35708DAE746EA5D
:10531000064613F1400F4FEA16461FDD13F1200F2A
:10532000DFBF16430A46002120335B42C8D0C3F1D9
:10533000200746EA064602FA07F74FEA164646EA0B
:105340000706C3F1200722FA03F201FA07F721FA50
:1053500003F14FF0000342EA0702B1E746EA020612
:1053600046EA06464FEA164646EA0106BCBF46EA4A
:105370000646360C4FF000034FF000024FF00001DC
:105380009EE72DE9C048934630B491E8380007C83D
:1053900031EA400C48BF34EA430C03D5FFF7C7FDA0
:1053A000FFF78CFFF0BCBDE800882DE9C0489346AC
:1053B00030B491E8380007C831EA400C48BF34EAFD
:1053C000430C03D5FFF7B3FDFFF74EFFF0BCBDE87C
:1053D00000882DE9C048934630B491E8380007C8EA
:1053E00010F0804F08BF13F0804F03D100F019F880
:1053F000FFF764FFF0BCBDE800882DE9C048934684
:1054000030B491E8380007C810F0804F08BF13F09F
:10541000804F03D100F005F8FFF726FFF0BCBDE890
:10542000008820F07F4780EA030023F07F4C07EBE1
:105430000C03A3F57C5300F00040A3F1FE0392F0AF
:10544000000F00F0B38095F0000F00F077802DE999
:1054500001494FEA11404FEA144621EA004800FB97
:1054600006FC24EA064708FB06F607FB08F800FBE3
:1054700007F718EB06484CEB164C4FEA124B18EBAB
:1054800007484FEA15464CEB174022EA0B4E0BFB40
:1054900006FC25EA06470EFB06F607FB0EFE0BFB95
:1054A00007F71EEB064E4CEB164C4FF000061EEBBA
:1054B000074E4CEB174B18EB0B0840F1000018EBB4
:1054C0000E0B58EB000840F100008F1A4FF000015E
:1054D0003CBFC943661B14BFB5EB040C00213CBFA5
:1054E000C943F61B4FEA17444EEA8E0E27EA0445DD
:1054F0004FEA1C4704FB07622CEA074C05FB07F741
:105500000CFB05F604FB0CFC16EB074642EB1742BE
:1055100016EB0C4642EB1C421BEB060658EB020254
:10552000414146EA9E0601D5BDE80189B6195241BE
:1055300041EB0101A3F10103BDE801894FEA1445E4
:105540004FEA114724EA054621EA074C05FB07F418
:1055500006FB07F70CFB06F105FB0CFC11EB074102
:1055600044EB17444FEA124711EB0C4144EB1C4447
:1055700022EA074C05FB07F206FB07F70CFB06F6D1
:1055800005FB0CFC16EB074642EB174216EB0C46EC
:1055900042EB1C456A1854F1000148BF7047B61928
:1055A000524141EB0101A3F10103704795F0000F57
:1055B00037D04FEA11424FEA144721EA024624EA63
:1055C000074C02FB07F106FB07F70CFB06F402FB96
:1055D0000CFC14EB074441EB17414FEA154714EB61
:1055E0000C4441EB1C4125EA074C02FB07F506FB86
:1055F00007F70CFB06F602FB0CFC16EB074645EB27
:10560000174516EB0C4645EB1C42121951F10001EF
:1056100048BF7047B619524141EB0101A3F10103A4
:1056200070474FEA14454FEA114724EA054621EA3C
:10563000074C05FB07F106FB07F70CFB06F24FF0E2
:10564000000605FB0CFC12EB074241EB174112EB85
:105650000C4251EB1C4148BF7047921841EB0101CD
:10566000A3F101037047490050EAC12018BF04208C
:105670004A0D18BF40F0010040F2FF72B2EB515FDB
:1056800008BF40F00200012808BF052070472DE93F
:10569000F0414F1E00EBC7010446D1E90001154659
:1056A0001E4637F006020DD02A46334600F0BEFEF5
:1056B0007F1E04EBC703D3E9002300F0A3FB37F000
:1056C0000602F1D1022F25D0042F13D0062F18BFC8
:1056D000BDE8F0812A46334600F0A8FED4E90A234B
:1056E00000F090FB2A46334600F0A0FED4E90823E0
:1056F00000F088FB2A46334600F098FED4E90623E2
:1057000000F080FB2A46334600F090FED4E90423E3
:1057100000F078FB2A46334600F088FED4E90223E5
:1057200000F070FB2A46334600F080FED4E90023E7
:10573000BDE8F04100F066BB024A0020110701F00D
:1057400024BD000001FDFFFF10B50446D1E90001B2
:1057500000F002F8206010BD38B504460D466A46D8
:1057600000F086FA00987E30009000281FDC0022AE
:1057700013462046294600F059FD18D020462946F8
:1057800000F00EFB0446002140F608004FF0000038
:1057900040F60801014040F608004FF0000034F0E8
:1057A000004004BF0220FEF725FA204638BD0098CD
:1057B000FF280DDB0220FEF71DFA002213462046CB
:1057C000294600F0D9FF8CBF04484FF0FF4038BD98
:1057D00020462946BDE8384000F0E2BA000080FFCC
:1057E00010B504460A46D4E90003194600F06CFAE5
:1057F000C4E9000110BD30380A2801D201207047E9
:10580000002070472DE9F84F04460D4621F0004076
:1058100000917449814213DC7349884201DC08D14C
:105820003CB120462946BDE8F84F4FF0010201F097
:10583000ACBC6E48002DCCBF6D496E49BDE8F88FF9
:105840006D49814211DD6D498142D8BF4FF0FF366D
:105850006DDD20462946FFF706FF042808BFFFF745
:105860006BFF20462946BDE8F88F6549654F25F056
:105870000045814233DD6449814219DD002632460C
:105880004FF080432046294600F0BCFA80468A4605
:1058900001222046294601F078FC00223B4600F018
:1058A000ADFF4246534600F069FB04460D463EE01C
:1058B00001260022BA463B462046294600F0A2FABD
:1058C00080460F46002253462046294600F096FFA8
:1058D00042463B4600F052FB04460D4627E04B494A
:1058E00081421BDDDFF82881022600224346204644
:1058F000294600F09BFD00223B4600F083FA074654
:105900008A46002243462046294600F077FF3A4661
:10591000534600F033FB04460D4608E003262246BA
:105920002B4600203B4900F029FB04460D46224649
:105930002B461046194600F079FD8B4682460246FA
:105940000B4600F073FD07460246334888460B4677
:1059500006217844FFF79BFE52465B4600F066FD49
:1059600082462E488B463A46434605217844FFF747
:105970008EFE3A46434600F059FD02460B46002E85
:10598000504659460CDA00F03DFA22462B4600F00C
:105990004DFD01B022462B46BDE8F04F00F022BF7E
:1059A00000F030FA22462B4600F040FD1C4A7A44B3
:1059B00002EBC603D3E9002300F020FF22462B466A
:1059C00000F01CFF174A7A4402EBC603D3E9002318
:1059D00000F008FF009A002AB8BF81F00041BDE83E
:1059E000F88F0000000010440000F07F182D445490
:1059F000FB21F93FFB21F9BF0000DC3F0000203E06
:105A00000000F33F0000F03F0000E63F008003404D
:105A10000000F83F0000F0BF5A1C0000181C0000F6
:105A2000B61B00007E1B00002DE9F04D9446CCF122
:105A3000000423F000464CEA0404524F46EAD474B2
:105A40009A46884621F00042BC4206D8454240EAC8
:105A5000050442EAD474BC4204D9BDE8F04D624664
:105A600000F0D0B9AAF14055A5F17F6555EA0C04C4
:105A70000BD0022404EAAA74434DDFF810E144EA93
:105A8000D87452EA000B04D00CE0BDE8F04DFFF7EB
:105A9000B9BE002C14BF012CBDE8F08D022C30D013
:105AA000032C32D056EA0C0B0AD0BE4220D1BA42A7
:105AB00009D126F0804622F080423346114617E095
:105AC00000291ADB25E0DFF8C8B0FB44002C04BF36
:105AD000DBE90001BDE8F08D012C02BFDBE900012C
